:020000040800F2
:100000009020002005010008FD0A0008F50A0008FC
:10001000F90A000841090008031B0008000000005D
:100020000000000000000000000000009D16000815
:100030004509000800000000451500088917000860
:100040001F0100081F0100081F0100081F01000810
:100050001F0100081F0100081F0100081F01000800
:100060001F0100081F0100081F0100081F010008F0
:100070001F0100081F0100081F0100081F010008E0
:100080001F0100081F0100081F0100081F010008D0
:100090001F0100081F0100081F0100081F010008C0
:1000A0001F0100081F0100081F0100081F010008B0
:1000B0001F0100081F0100081F0100081F010008A0
:1000C0001F0100081F0100081F0100081F01000890
:1000D0001F010008B51800081F0100081F010008D3
:1000E0001F0100081F0100081F010008DFF810D0E1
:1000F00000F034FB00480047E1230008AFF3008024
:10010000902000200648804706480047FEE7FEE7AB
:10011000FEE7FEE7FEE7FEE7FEE7FEE7FEE7FEE7B7
:1001200091170008ED0000082DE9F05F054600205A
:1001300092469B4688460646814640241BE0284658
:1001400041464746224600F03AFA53465A46C01AFC
:10015000914110D311461846224600F021FA2D1A7B
:1001600067EB01084F4622460120002100F018FAF3
:1001700017EB00094E41201EA4F10104DFDC4846C4
:1001800031462A464346BDE8F09F40EA01039B07FB
:1001900003D009E008C9121F08C0042AFAD203E0FC
:1001A00011F8013B00F8013B521EF9D27047D2B260
:1001B00001E000F8012B491EFBD270470022F6E750
:1001C00010B513460A4604461946FFF7F0FF2046CD
:1001D00010BD421C10F8011B0029FBD1801A70478A
:1001E0002DE9FE4F804681EA0300C00F0C460090C7
:1001F00021F0004123F00045B8EB0200A94105D2EF
:100200004046214690461C460B46024623F00040DD
:10021000104347D0270DC7F30A00C3F30A510290D9
:10022000401A019040286BDAC3F3130040F4801B9E
:100230000098924620B10023D2EB030A63EB0B0B2C
:1002400001985946C0F14002504600F0A9F906460F
:100250000D4650465946019A00F0C1F910EB0800CE
:100260006141002487EA115284EAE7731A4340D0BF
:10027000009A62B3019A012A4FEA075215DC001B6B
:1002800061EB02014FF0004202EA0752CDE9004261
:10029000001C41F5801132462B4600F0F8F903B0FE
:1002A000BDE8F08F40462146F9E7001B61EB0201F3
:1002B000001C41F5801300185B412018A2F50017BF
:1002C00047EB030140EAD570B6196D4111E06D08A6
:1002D0004FEA360645EAC0754FEA0752001B61EB4C
:1002E0000201001C41F5801149084FEA3000001955
:1002F000514132462B4603B0BDE8F04F00F0B8B98B
:100300000098012240000023D0EB020263EBE0736F
:10031000009821464FEAE074B8EB000061EB04015D
:10032000E9E783F000435BE781F0004158E72DE9FE
:10033000FE4F81EA030404F0004421F000410094E0
:100340004FF0000B23F0004350EA01045ED052EA64
:1003500003045BD0C3F30A54C1F30A552C44A4F23E
:10036000F3340194A0FB0254C1F3130141F4801152
:10037000C3F3130343F4801301FB024400FB034E59
:10038000840A970A44EA815447EA8357A4FB076822
:1003900002958D0A05FB07854FEA932C04FB0C544C
:1003A0002705029D4FEA065847EA1637B5EB0805C0
:1003B0006EEB070C870E920E47EA811742EA831212
:1003C000A7FB0201B6EB0B0164EB00042B0D43EA23
:1003D0000C335E1844EB1C50DA465146E7FB020131
:1003E000C5F313044FEA0B3343EA14534FEA0432C4
:1003F000019C43EA0603A4F10C040294009CCDE99D
:1004000000B400F044F903B0BDE8F08F00200146CD
:10041000F9E72DE9F04D81EA030404F0004B21F0E7
:10042000004514464FF0000A23F0004150EA05024F
:1004300020D054EA01021DD0C5F30A570246C5F385
:100440001303C1F31300C1F30A5640F4801543F4BB
:100450008013A7EB0608101BD64608F2FD3873EB95
:10046000050002D308F1010801E092185B41B8F1E0
:10047000000F03DA00200146BDE8F08D00204FF4A4
:100480008011064684460EE0171B73EB050705D363
:10049000121B63EB050306434CEA010C49084FEAC3
:1004A000300092185B4150EA0107EDD152EA030097
:1004B00012D082EA040083EA0501084305D0101B2C
:1004C000AB4106D20122002306E000224FF0004398
:1004D00002E06FF0010253101AEB06004CEB0851DA
:1004E00010EB0A0041EB0B01BDE8F04D00F0C0B885
:1004F0000EB540F2334102910021CDE900110A46C8
:100500000B4600F0C4F803B000BD000030B5041E77
:1005100071F1000404DB4FF00044404264EB010140
:10052000141E73F1000405DB1C464FF000435242D9
:1005300063EB0403994208BF904230BD01F00043D1
:1005400030B421F0004150EA010206D00A0DA2F5B4
:100550006072C1F31301002A02DC30BC0020704736
:10056000440F44EAC104C100E01830BC00EBC250A3
:1005700000F047B830B50B46014600202022012488
:1005800009E021FA02F59D4205D303FA02F5491B61
:1005900004FA02F52844151EA2F10102F1DC30BD77
:1005A000202A04DB203A00FA02F100207047914033
:1005B000C2F1200320FA03F3194390407047202A28
:1005C00004DB203A21FA02F00021704721FA02F3FD
:1005D000D040C2F120029140084319467047202ABA
:1005E00006DBCB17203A41FA02F043EAE07306E05B
:1005F00041FA02F3D040C2F120029140084319466B
:1006000070470029A8BF7047401C490008BF20F070
:100610000100704710B4B0FA80FC00FA0CF050EA08
:10062000010404BF10BC704749B1CCF1200421FA89
:1006300004F411FA0CF118BF012121430843A3EB84
:100640000C01CB1D4FEA00614FEA102042BF002091
:1006500010BC704700EBC35010440029A4BF10BC6D
:100660007047401C490008BF20F0010010BC7047D3
:1006700010B5141E73F1000408DA401C41F10001AA
:1006800092185B411A4301D120F0010010BD2DE901
:10069000F04D92469B4611B1B1FA81F202E0B0FAF8
:1006A00080F220329046FFF77BFF04460F4640EA77
:1006B0000A0041EA0B0153465A46084313D011463B
:1006C00053EA010019D0C8F140025046FFF777FF06
:1006D00005460E46504659464246FFF761FF08431D
:1006E00005D0012004E020463946BDE8F08D002009
:1006F000054346EAE0762C4337430A986305E40A4B
:10070000A0EB08000022FD0A44EA47540A3002D553
:1007100000200146E9E7010510196941DDE90845B6
:1007200000196941BDE8F04DA2E7C1F30A52C1F3D7
:10073000130140F2FF3341F480119A4202DA0020A3
:100740000146704740F233439A42A2F2334202DC40
:100750005242FFF734BFFFF723BF0000064C074D9E
:1007600006E0E06840F0010394E807009847103481
:10077000AC42F6D3FFF7BEFC7024000890240008BA
:10078000014800687047000004000020014800682C
:10079000704700000000002008B50121082000F08B
:1007A000F3FE2020ADF8000010208DF80300022099
:1007B0008DF802006946024800F0C5F808BD000047
:1007C000000C014070B51D48007810B1012832D1ED
:1007D00018E000F0F5F91A4AD2E90053194A1268F4
:1007E000AA1843F10003801A99410AD32021164820
:1007F00000F07CF900F0E4F9114A03C201200F492E
:10080000087019E000F0DCF90D4AD2E900520F4BF4
:100810001B68EB1842F10002C01A91410AD3202153
:10082000094800F065F900F0CBF9054A03C2002041
:100830000249087000E000BF00BF70BD0800002042
:100840001000002004000020000C014000000020E7
:100850000149086070470000040000200149086059
:10086000704700000000002010B50B480B490860DD
:100870004FF4E130486000200881888148810C20D5
:10088000C881002008744874802088824882084605
:1008900000F0EDFA10BD00000038014040000020DB
:1008A0002DE9F0410021204800F023FC0446002CF3
:1008B00037DBE5B2652D16D0712D04D0722D1AD01C
:1008C000772D20D107E0FFF761FF00F10A063046DF
:1008D000FFF7C4FF17E0FFF759FFA0F10A06304603
:1008E000FFF7BCFF0FE0FFF74BFF00F10A063046B1
:1008F000FFF7AEFF07E0FFF743FFA0F10A0630461F
:10090000FFF7A6FF00BF00BFFFF73AFF0646FFF75D
:100910003DFF074633463A4604A1034800F0C9FBB1
:1009200000BFBDE8F0810000400000206F6E3D2553
:10093000646D732C206F66663D25646D730D0A002F
:1009400000BFFEE770472DE9F04102460025002672
:10095000002000230024002791F803C00CF00F05AD
:1009600091F803C00CF0100CBCF1000F03D091F80B
:1009700002C04CEA050591F800C0BCF1000F31D06F
:10098000146800202BE04FF0010C0CFA00F3B1F8D2
:1009900000C00CEA03069E4220D183004FF00F0CEA
:1009A0000CFA03F7BC4305FA03FC4CEA040491F883
:1009B00003C0BCF1280F06D14FF0010C0CFA00FC6B
:1009C000C2F814C00AE091F803C0BCF1480F05D189
:1009D0004FF0010C0CFA00FCC2F810C0401C0828B3
:1009E000D1D31460B1F800C0BCF1FF0F34DD5468FE
:1009F00000202EE000F1080C4FF0010808FA0CF37B
:100A0000B1F800C00CEA03069E4221D183004FF0EA
:100A10000F0C0CFA03F7BC4305FA03FC4CEA040480
:100A200091F803C0BCF1280F05D100F1080C08FAB9
:100A30000CF8C2F8148091F803C0BCF1480F07D13C
:100A400000F1080C4FF0010808FA0CF8C2F8108009
:100A5000401C0828CED35460BDE8F081F0B50A46AA
:100A6000002300240021002500F00046B6F1004FCD
:100A700002D11D4EF16901E01B4E7168C0F30345C0
:100A800083B200F44016B6F5401F08D121F0706122
:100A9000154E766826F07066134F7E6012E000F403
:100AA0008016B6F5801F06D1032606FA05F4A14389
:100AB00041F0706106E0460D360103FA06F6B143D7
:100AC00041F0706122B1460D360103FA06F631435A
:100AD00000F00046B6F1004F02D1034EF16101E093
:100AE000014E7160F0BD000000000140416170479F
:100AF0000161704700BFFEE700BFFEE770470000DE
:100B000070B5002100230F22C47804B3154C24686B
:100B100004F4E064C4F5E064210AC1F10403CA40AE
:100B2000447804FA03F184781440214309010E4CFF
:100B30000678A155047804F01F050124AC4005781F
:100B40006D11AD0005F1E025C5F8004109E004781C
:100B500004F01F050124AC40044D0678761145F8D9
:100B6000264070BD0CED00E000E400E080E100E014
:100B700070B504460D462946204600F02FF870BD9A
:100B800070B504460D46164632462946204600F00A
:100B900045F870BD13B5044601A9204600F08FF852
:100BA0001CBD10B50446204600F0BAF810BD70B563
:100BB00005460C4622460121284600F0BEF870BDCD
:100BC00001490868496870471800002010B500F016
:100BD0000FFE10BD00210180418070472DE9F041DA
:100BE00004460D46204600F09BF810B90020BDE8F1
:100BF000F0812688E368A78806FB07313A4600267D
:100C000006FB0750FFF7C1FA2088401CE18890FBE3
:100C1000F1F201FB120020800120E8E72DE9F05FEE
:100C200004468A4615464FF0000B204600F078F83F
:100C30004119E088401E81421DDB204600F070F81B
:100C40004119E088401EA1EB0008204600F068F83A
:100C5000404508D22046FFF7BDFF204600F060F86F
:100C6000A8EB000B07E020884044E188B0FBF1F2DC
:100C700001FB1200208066885F4610E0B4F804C0D3
:100C8000E36806FB0C30624607FB0CA1FFF77DFA18
:100C9000E188701CB0FBF1F201FB12067F1CA5EB92
:100CA0000B00B842EAD86680204600F039F8814649
:100CB0002189494501DAA4F80890BDE8F09F2DE9A3
:100CC000F04104460E46204600F02AF8E188491E0D
:100CD000884207D12088401CE18890FBF1F201FB9B
:100CE000120020806788E368B4F804C007FB0C306A
:100CF0006246002707FB0C61FFF747FA6088401C3B
:100D0000E18890FBF1F201FB12006080204600F0C8
:100D100007F805462089A84200DA2581BDE8F08160
:100D200001464888CA8810440A88801ACA8890FBFD
:100D3000F2F302FB130080B2704770B504460E4612
:100D40001546A680A18801FB05F001F05BFBE06081
:100D5000E06808B9002070BDE58000202080608038
:100D600020810120F7E700000448036840685A1C0E
:100D700040F1000001490A604860704718000020F7
:100D800070B504460D461448844204D101218803FD
:100D900000F0FAFB1EE01148844204D1012148040E
:100DA00000F0D2FB16E00E48844204D101218804F1
:100DB00000F0CAFB0EE00B48844204D10121C804B4
:100DC00000F0C2FB06E00848844203D10121080577
:100DD00000F0BAFB70BD0000003801400044004044
:100DE00000480040004C00400050004001460020F8
:100DF0000E4B0A689A4201D1252016E00C4B0A6876
:100E00009A4201D1262010E00A4B0A689A4201D189
:100E100027200AE0084B0A689A4201D1342004E0F6
:100E2000064B0A689A4200D13520704700380140CD
:100E30000044004000480040004C0040005000408A
:100E400010B5044640F22551206800F095FD0128B8
:100E500002D1204600F084F840F22771206800F0AB
:100E60008BFD012802D1204600F00AF910BD10B513
:100E700086B0044600200E3484F83A00E0862087CD
:100E80002078C0F3C000A0742078C0F38000E07424
:100E9000A07C0E3C012802D1204600F073FA94F8A1
:100EA0002100012802D1204600F06CF9206800F0F2
:100EB00015FD01212068FFF763FF606802900020A4
:100EC000ADF81400ADF81200E089ADF812006089A9
:100ED000ADF81000A089ADF80E002089ADF80C0027
:100EE00002A9206800F098FD2046FFF77FFF8DF8EB
:100EF0000400207C8DF80500607C8DF80600012040
:100F00008DF8070001A8FFF7FBFD94F821000128E8
:100F100005D1012240F22551206800F057FD94F8D8
:100F20002000012809D1618A04F12400FFF73FFE67
:100F3000012802D0002006B010BD94F8210001283D
:100F400008D1A18A04F13400FFF731FE012801D055
:100F50000020F0E70121206800F0B4FC0120EAE75E
:100F600070B50446206800F0C3FDC5B2A08B002810
:100F700078D0A08B012804D0022826D0032870D175
:100F800047E00D2D18D1608F012815DD608F401EC0
:100F9000A4F8440004F13400FFF703FE401CA4F859
:100FA0004600B4F84610608F81420DD1B4F8460077
:100FB000401EA4F8460007E0B4F8440020B1B4F89D
:100FC0004400401EA4F844004BE00A2D18D1608F65
:100FD000012815DD608F401EA4F8440004F13400A0
:100FE000FFF7DFFD401CA4F84600B4F84610608F00
:100FF00081420DD1B4F84600401EA4F8460007E037
:10100000B4F8440020B1B4F84400401EA4F84400F1
:1010100027E00A2D1CD194F848000D2818D1608FC4
:10102000022815DD608F801EA4F8440004F134000E
:10103000FFF7B7FD401CA4F84600B4F84610608FD7
:1010400081420DD1B4F84600401EA4F8460007E0E6
:10105000B4F8440020B1B4F84400401EA4F84400A1
:1010600000BF00BF84F84850B4F8440010B9002015
:10107000A4F84600294604F13400FFF78BFD70BD4B
:1010800038B5044604F12400FFF78BFD30B9002287
:1010900040F22771206800F099FC09E0694604F1EC
:1010A0002400FFF765FD9DF80010206800F025FD85
:1010B00038BD0FB430B5C1B0044694F82000012803
:1010C00003D041B030BC5DF814FB46A8009001A8E5
:1010D000009A459900F018FD0020009001A8FFF744
:1010E00078F885B22A4601A9204600F02FF900BF02
:1010F000E7E72DE9F84304460D4694F8210001285E
:1011000002D00020BDE8F8834FF0FF38FFF758FD0C
:10111000461941F1000700BF04F13400FFF741FD1B
:1011200028B3002240F22551206800F04FFC04F162
:101130003400FFF736FD98B1694604F13400FFF73B
:1011400017FD9DF80080B4F8460048B134F8460F0A
:10115000401E208034F8460910B90020A4F844004D
:10116000012240F22551206800F030FC07E0681CA5
:101170000028D1D0FFF724FD801BB941CCD300BF9C
:101180004046BFE738B5044648208DF8030065495E
:101190002068884227D1A06960B90121042000F0AD
:1011A000F3F94FF48060ADF8000069465E48FFF740
:1011B000CAFBB5E0A069012813D10121084600F05F
:1011C000E3F901210420FFF749FC0121082000F088
:1011D000DBF98020ADF8000069465448FFF7B3FB07
:1011E0009EE0002038BD52492068884226D1A0697F
:1011F00058B90121042000F0C7F90820ADF800001B
:1012000069464948FFF79FFB8AE0A069012813D18E
:101210000121084600F0B8F901210820FFF71EFC63
:101220000121202000F0B0F94020ADF8000069460F
:101230004048FFF788FB73E00020D3E73E49206871
:10124000884244D1A06960B90121082000F09CF9CE
:101250004FF40060ADF8000069463448FFF773FBB7
:101260005EE0A069012814D10121084600F08CF944
:1012700001213248FFF7F2FB0121102000F084F930
:101280004FF40060ADF8000069462D48FFF75BFBA6
:1012900046E0A069032818D10121084600F074F93E
:1012A000012126482030FFF7D9FB0121202000F042
:1012B0006BF94FF40070ADF8000048208DF8030082
:1012C00069461C48FFF73FFB2AE000208AE71D49DA
:1012D000206888420FD10121102000F055F94FF409
:1012E0000060ADF8000048208DF8030069461448FE
:1012F000FFF729FB14E01449206888420ED1012130
:10130000202000F041F90420ADF8000048208DF8BD
:10131000030069460748FFF716FB01E0002061E77C
:1013200001205FE70038014000080140000C014047
:101330000044004000140140004800401000140028
:1013400000100140004C00400050004070B50446C1
:101350000D46164694F82000012811D1002240F2D3
:101360002771206800F032FB3246294604F1240040
:10137000FFF706FC012240F22771206800F026FBEF
:1013800070BD000038B5044618208DF80300012018
:101390008DF8020061492068884227D1A06960B9B0
:1013A0000121042000F0F0F84FF40070ADF80000C7
:1013B00069465B48FFF7C7FAADE0A069012813D181
:1013C0000121084600F0E0F801210420FFF746FB68
:1013D0000121082000F0D8F84020ADF8000069464F
:1013E0005048FFF7B0FA96E0002038BD4E4920681B
:1013F000884226D1A06958B90121042000F0C4F820
:101400000420ADF8000069464548FFF79CFA82E0E9
:10141000A069012813D10121084600F0B5F8012187
:101420000820FFF71BFB0121202000F0ADF8202051
:10143000ADF8000069463D48FFF785FA6BE00020F3
:10144000D3E73B492068884241D1A06960B90121B6
:10145000082000F099F84FF48060ADF8000069466C
:101460003048FFF770FA56E0A069012814D1012135
:10147000084600F089F801212E48FFF7EFFA012114
:10148000102000F081F84FF48060ADF8000069464C
:101490002948FFF758FA3EE0A069032815D1012139
:1014A000084600F071F8012122482030FFF7D6FAF3
:1014B0000121202000F068F84FF48070ADF80000A2
:1014C00069461A48FFF73FFA25E000208DE71B49DF
:1014D000206888420CD10121102000F055F84FF40B
:1014E0008060ADF8000069461348FFF72CFA12E05F
:1014F0001349206888420CD10121102000F044F8E3
:101500004FF48050ADF8000069460B48FFF71BFA16
:1015100001E0002069E7012067E700000038014092
:1015200000080140000C014000440040001401404C
:10153000004800401000140000100140004C004022
:10154000005000407047000029B1064AD2690243AA
:10155000044BDA6104E0034AD2698243014BDA6149
:10156000704700000010024029B1064A1269024388
:10157000044B1A6104E0034A12698243014B1A6169
:10158000704700000010024029B1064A92690243E8
:10159000044B9A6104E0034A92698243014B9A61C9
:1015A000704700000010024029B1064AD268024389
:1015B000044BDA6004E0034AD2688243014BDA60EC
:1015C000704700000010024030B5002100220024C6
:1015D00000232D4D6D6805F00C0121B1042905D0C3
:1015E000082923D105E0294D056022E0274D05603B
:1015F0001FE0254D6D6805F47012234D6D6805F4EC
:101600008034022505EB92421CB9214D55430560FB
:101610000BE01D4D6D6805F400351DB11C4D5543A3
:10162000056002E0194D5543056002E0174D056065
:1016300000BF00BF144D6D6805F0F0010909154D9C
:101640006B5C0568DD4045600F4D6D6805F4E06139
:10165000090A104D6B5C4568DD4085600A4D6D6878
:1016600005F46051C90A0B4D6B5C4568DD40C560EF
:10167000054D6D6805F44041890B074D6B5CC568ED
:10168000B5FBF3F5056130BD0010024000127A0091
:1016900000093D002400002034000020704710B5F0
:1016A00000F002F810BD00000CB500200190009081
:1016B0003348006840F480303149086000BF30484A
:1016C000006800F4003000900198401C01900098E0
:1016D00018B90198B0F5A06FF1D12948006800F45D
:1016E000003010B10120009001E00020009000982F
:1016F000012843D12348006840F0100021490860C8
:101700000846006820F0070008600846006840F0BE
:10171000020008601A484068194948600846406855
:1017200048600846406840F4806048600846406869
:1017300020F47C1048600846406840F4E810486097
:101740000846006840F08070086000BF0C480068E0
:1017500000F000700028F9D00948406820F003002C
:10176000074948600846406840F00200486000BFF2
:101770000348406800F00C000828F9D10CBD0000B7
:10178000001002400020024010B5FFF7EDFA10BD36
:1017900010B51348006840F0010011490860084680
:1017A0004068104908400E494860084600680E49E4
:1017B00008400B4908600846006820F48020086053
:1017C0000846406820F4FE0048604FF41F0088601F
:1017D000FFF765FF4FF000600449086010BD00008E
:1017E000001002400000FFF8FFFFF6FE08ED00E0E9
:1017F0002DE9F04186B0142101A8FEF7DFFC4FF07F
:10180000E020006920F001004FF0E0210861002194
:10181000244A1160516001A8FFF7D6FE4FF0E02086
:10182000006940F002004FF0E021086100211E48ED
:10183000C1774FF47A710298B0FBF1F4B4F1807F74
:1018400009D3E4084FF0E020006920F004004FF0D5
:10185000E021086107E04FF0E020006940F004005B
:101860004FF0E0210861601E4FF0E021486108461A
:10187000006940F001000861496921F07F41481C7E
:10188000FEF736FE07463A460B4600200749FEF7AC
:10189000C0FD0546FEF752FE0549086006B0BDE8EA
:1018A000F08100001800002000ED00E000408F40B3
:1018B0002000002010B50248FFF7C2FA10BD00005A
:1018C0004000002021B1828942F40052828104E06C
:1018D00082894DF6FF731A408281704710B5044625
:1018E0002048844209D101218803FFF75DFE0021D1
:1018F0004FF48040FFF758FE32E01B48844209D184
:1019000001214804FFF730FE00214FF40030FFF7BB
:101910002BFE25E01548844209D101218804FFF7F8
:1019200023FE00214FF48020FFF71EFE18E0104830
:10193000844209D10121C804FFF716FE00214FF4AB
:101940000020FFF711FE0BE00A48844208D1012174
:101950000805FFF709FE00214FF48010FFF704FE91
:1019600010BD000000380140004400400048004025
:10197000004C00400050004070B502460024002397
:101980000025002040F66A16B14200D100BFC1F325
:10199000421501F01F03012606FA03F3012D02D1BF
:1019A0009689334006E0022D02D1168A334001E0C9
:1019B000968A33400C12012606FA04F41688344045
:1019C00013B10CB1012000E0002070BDF0B503465A
:1019D000002400260025002040F66A17B94200D1F5
:1019E00000BF1846C1F3421401F01F06012707FA91
:1019F00006F5012C01D10C3004E0022C01D110308D
:101A000000E014301AB107682F43076002E007684E
:101A1000AF430760F0BD00002DE9F04786B00546F2
:101A20000E460024A24600BFA1460027B08900B19F
:101A300000BF2F462C8A4CF6FF700440F088044308
:101A40002C82AC894EF6F3100440B08831890843EB
:101A5000718908430443AC81AC8A4FF6FF400440CF
:101A6000B0890443AC8201A8FFF7AEFD1F4887424E
:101A700002D1DDF810A001E0DDF80CA0A88900F487
:101A8000004040B10AEBCA0000EB0A10316849007F
:101A9000B0FBF1F807E00AEBCA0000EB0A1031686E
:101AA0008900B0FBF1F86420B8FBF0F004012009D4
:101AB000642101FB1089A88900F4004040B1322064
:101AC00000EBC900B0FBF1F000F00700044308E0B0
:101AD000322000EB09106421B0FBF1F000F00F00A0
:101AE00004432C8106B0BDE8F087000000380140B7
:101AF00001468888C0F308007047C1F3080282805D
:101B0000704700BFFEE7000037B514460846064B95
:101B10006A46214600F0DCF804466946002000F0E1
:101B20005AFC20463EBD0000D723000802E008C84A
:101B3000121F08C1002AFAD170477047002001E047
:101B400001C1121F002AFBD1704700002DE9FF5F81
:101B500082B00021DDE90430020DDDF840B003431E
:101B600018D044F61050A2F2FF32424315141198D7
:101B700001281FD0A5EB0B00401C5FEA000A4FF0C4
:101B800000064E4FDFF83891B046504615D5CAF1E1
:101B9000000413E0119801244AA3012801D16FEA3F
:101BA0000B010298119AC0E90031C0E9024206B067
:101BB000BDE8F09FCBF10000DFE704460021404A7A
:101BC000491842EB0450CDE9001012E0E00707D0BD
:101BD00032463B4640464946FEF7A9FB80468946C9
:101BE00032463B4610461946FEF7A1FB06460F4615
:101BF0006410002CEAD1DDE90401DDE90023BAF12B
:101C0000000F06DAFEF793FB42464B46FEF78FFBCA
:101C100005E0FEF7FEFB42464B46FEF7FAFB0446A4
:101C20000E460022284BFEF771FC03D84FF0FF3020
:101C3000014607E00022254B20463146FEF7D0FA48
:101C4000FEF773FD102409E0002C0ADB0A220023B2
:101C5000FEF76AFA039B30321A55641E50EA0102FD
:101C6000F2D1641C039AC4F111031444119A012A9D
:101C700003D0012208430DD10AE0084304D000201C
:101C80004FF0110B119072E7A3EB0B056D1E0DE0E9
:101C90005B4504DD4FF0000205F1010504E003DAC5
:101CA0004FF00002A5F10105002AECD0029811992D
:101CB000C0E90231C0E9004579E7000000001440A6
:101CC0000000F03F300000000000F0430000E03F63
:101CD0002DE9FF4F95B09A46884606460025EEE16D
:101CE000252877D100242746F94A0121039400E0F2
:101CF000044316F8013F203B01FA03F01042F7D1EC
:101D000030782A2811D06FF02F033078A0F13002FC
:101D1000092A16D8039A44F0020402EB820203EB6C
:101D200042021044761C0390EFE758F8042B03920C
:101D3000002A03DA504244F40054039044F00204B1
:101D4000761C30782E2816D116F8010F44F00404C2
:101D50002A280DD06FF02F023078A0F13003092B24
:101D600009D807EB870302EB4303C718761CF3E798
:101D700058F8047B761C30786C280FD006DC4C2891
:101D800017D068280DD06A2814D104E0742810D028
:101D90007A280FD10DE044F400140AE044F48014D2
:101DA00001E044F440147278824202D104F58014B8
:101DB000761C761C307866280BD013DC582877D038
:101DC00009DC002875D04528F6D04628F4D04728ED
:101DD0001AD193E118E0632835D0642879D06528BA
:101DE00012D18BE1702873D008DC6728F1D0692804
:101DF0006FD06E280DD06F2806D1ACE073282CD0A0
:101E0000752874D0782853D05246179990476D1C86
:101E100054E1C4F30250022809D003280DD0D8F8A9
:101E2000001004280DD00D6008F1040846E1D8F830
:101E30000010EA17C1E90052F6E7D8F800100D804B
:101E4000F2E70D70F0E718F8041B8DF80010002081
:101E50008DF80100EB46012003E058F804BB4FF079
:101E6000FF3061074FF0000102D40DE009F10101DC
:101E70008946B9420FDA8145F8DB1BF809100029C1
:101E8000F4D108E009F1010189468142FADB1BF82F
:101E900009100029F6D103985346A0EB0907214603
:101EA0003846179A00F080FA284400EB090507E04D
:101EB00044E008E10DE01BF8010B524617999047EA
:101EC000B9F10109F7D2534621463846179AF2E094
:101ED00039E00A21C4F302524FF0000B0091022AAC
:101EE00006D058F8040BC117032A09D00AE023E0F2
:101EF00008F1070020F00702F2E80201904605E031
:101F000000B2C117042A01D140B2C117002906DA74
:101F10000A460021404261EB02012D2202E0220527
:101F200004D52B228DF80420012203E0E20701D022
:101F30002022F7E7914657E00A2100E010214FF0F8
:101F4000000B00910BE010214FF0000B44F0040453
:101F50000827009103E008204FF0000B0090C4F325
:101F60000252022A05D058F8040B0021032A08D097
:101F700008E008F1070020F00702F2E802019046AD
:101F800003E080B2042A00D1C0B24FF0000922075A
:101F90002AD53278702A07D0DDF800C08CF0100CFA
:101FA0005CEA0B0C05D00EE040228DF804200122E3
:101FB00008E050EA010306D030238DF804308DF894
:101FC000052002229146009B83F0080353EA0B038D
:101FD0000AD150EA010201D1620705D530228DF8FD
:101FE00004204FF001097F1E3278582A04D039A20C
:101FF0000C920CAA02920BE03BA2F9E75B46009A16
:10200000FEF792F80C9B9B5C029A521E0292137090
:1020100050EA0102F2D1029804A9081A00F1200B3B
:10202000600702D524F4803400E001275F4502DD1B
:10203000A7EB0B0000E0002000EB0B0100900398E1
:102040004944401A0390E00306D453462146179AA8
:10205000039800F0A9F90544002706E001A85246BC
:10206000C05D179990476D1C7F1C4F45F6DBE00360
:102070000CD553462146179A039800F095F905446C
:1020800004E030205246179990476D1C0099481E75
:1020900000900029F5DC08E0029802995246007889
:1020A000491C0291179990476D1CBBF10001ABF1DF
:1020B000010BF1DC5BE100F065F90544761C30783A
:1020C00000287FF40DAE19B02846BDE8F08F00005F
:1020D00009280100303132333435363738396162FE
:1020E00063646566000000003031323334353637C2
:1020F000383941424344454600000000600700D49F
:10210000062708F1070020F00700F0E802238046C8
:1021100003F0004C5FEA0C0001D097A009E0200515
:1021200001D596A005E0E00701D095A001E0AFF24F
:102130004C001390307823F0004365280CD006DC67
:10214000452809D046281DD047287FD13BE0662886
:1021500018D067287AD136E00021112F01DB112039
:1021600000E0781CCDE9000104A90CA8FFF7EEFC03
:10217000DDE90D010C9A4FF0000B07F101091092F7
:1021800000914EE04FF000400097CDE9011004A906
:102190000CA8FFF7DBFCDDE90D020C9B0F994FF05B
:1021A000000B91461093009211B9791C00EB0109C4
:1021B000B7EB090003D4C0F1FF3B07F10109A9EB1C
:1021C0000700019042E0012F00DA01270021112FC2
:1021D00001DD112000E03846CDE9000104A90CA87A
:1021E000FFF7B4FCDDE90D010C9A00914FF0000BF4
:1021F000B946109221070FD4009A4A4503DA914656
:1022000001E0A9F10109B9F1010F05DD109AA9F169
:102210000101515C3029F4D0B84202DA10F1040F08
:1022200003DA0121CDE9011010E0002803DC83442A
:10223000A9EB000102E0411C494500DD8946A0EB05
:102240000B00401C01904FF000400290200705D485
:102250000198484502DB4FF0FF30019000208DF8D7
:102260004B0002980DF14B07B0F1004F25D0022032
:102270000C902B200D90029800280CDA404202901E
:102280002D200D9007E00A210298FEF773F93031F6
:10229000029007F8011D0C99481E0C900029F2DCF1
:1022A00002980028EFD1791E0D980870307800F060
:1022B000200040F0450007F8020D11A8C01BC01D0A
:1022C00002901398007800B1012000EB09010198F9
:1022D00001EBE071029801440398401A401E0390FC
:1022E000E00306D453462146179A039800F05CF8A1
:1022F00005441398007818B15246179990476D1C01
:10230000E00323D553462146179A039800F04CF872
:1023100005441BE0BBF1000F07DB0098584504DDC6
:102320001098179910F80B0001E0179930205246C9
:10233000904701980BF1010B401E05F1010501903A
:1023400004D12E205246179990476D1CB9F1000117
:10235000A9F10109DEDC05E017F8010B52461799D7
:1023600090476D1C0299481E02900029F4DC5346E8
:102370002146179A03989EE62D0000002B000000CE
:10238000200000002DE9F041044600251E461746B6
:10239000880404D405E039462020B0476D1C641E33
:1023A000F9D52846BDE8F0812DE9F0410446002525
:1023B0001E469046C80301D5302700E02027880438
:1023C00004D505E041463846B0476D1C641EF9D57A
:1023D0002846BDE8F0810A68531C0B6010707047F6
:1023E000FEF7F4FBFEF7D8F93220FEF737FA322079
:1023F000FEF72EFAFEF738FA03E0FEF7E3F9FEF7F0
:102400004FFAFAE7F0B50B30154D20F00701002424
:10241000144A0FE003688B420BD38B4205D95E1A36
:1024200043184768C3E9006700E04368136002C0CF
:1024300004E0021D10680028ECD12046002802D1DB
:10244000286808B10020F0BD064A07481060074A16
:10245000121A22F00702C0E9002401202860D7E701
:102460003C00002038000020940000209010002044
:102470009024000800000020400000002C1B0008F1
:10248000D024000840000020502000003C1B000821
:102490000A000000640000000000000000000000CE
:1024A000000000000000000000000000000000002C
:1024B0000000000000000000010203040102030408
:1024C00006070809020406080000000000000000DA
:04000005080000ED02
:00000001FF
