:020000040800F2
:100000002010002005010008630500085B050008BA
:100010005F050008010400086908000800000000EE
:100020000000000000000000000000009907000828
:100030000504000800000000850500089B07000873
:100040001B0100081B0100081B0100081B01000820
:100050001B0100081B0100081B0100081B01000810
:100060001B0100081B0100081B0100081B01000800
:100070001B0100081B0100081B0100081B010008F0
:100080001B0100081B0100081B0100081B010008E0
:100090001B0100081B0100081B0100081B010008D0
:1000A0001B0100081B0100081B0100081B010008C0
:1000B0001B0100081B0100081B0100081B010008B0
:1000C0001B0100081B0100081B0100081B010008A0
:1000D0001B0100081B0100081B0100081B01000890
:1000E0001B0100081B0100081B010008DFF810D0ED
:1000F00000F074F9004800478D080008AFF3008055
:100100002010002005480047FEE7FEE7FEE7FEE777
:10011000FEE7FEE7FEE7FEE7FEE7FEE7ED0000088C
:10012000D2B201E000F8012B491EFBD27047002239
:10013000F6E710B513460A4604461946FFF7F0FFE6
:10014000204610BD2DE9F04D81EA030404F0004B78
:1001500021F0004514464FF0000A23F0004150EA18
:10016000050220D054EA01021DD0C5F30A57024609
:10017000C5F31303C1F31300C1F30A5640F480150D
:1001800043F48013A7EB0608101BD64608F2FD388F
:1001900073EB050002D308F1010801E092185B41FE
:1001A000B8F1000F03DA00200146BDE8F08D002011
:1001B0004FF48011064684460EE0171B73EB0507CB
:1001C00005D3121B63EB050306434CEA010C4908F7
:1001D0004FEA300092185B4150EA0107EDD152EA34
:1001E000030012D082EA040083EA0501084305D027
:1001F000101BAB4106D20122002306E000224FF083
:10020000004302E06FF0010253101AEB06004CEBC2
:10021000085110EB0A0041EB0B01BDE8F04D00F076
:100220007FB80EB540F2334102910021CDE90011B3
:100230000A460B4600F083F803B000BD01F000430E
:1002400030B421F0004150EA010206D00A0DA2F5B7
:100250006072C1F31301002A02DC30BC0020704739
:10026000440F44EAC104C100E01830BC00EBC250A6
:1002700000F01FB8202A04DB203A00FA02F1002027
:1002800070479140C2F1200320FA03F319439040D4
:100290007047202A04DB203A21FA02F0002170473F
:1002A00021FA02F3D040C2F12002914008431946DE
:1002B00070470029A8BF7047401C490008BF20F0C4
:1002C0000100704710B4B0FA80FC00FA0CF050EA5C
:1002D000010404BF10BC704749B1CCF1200421FADD
:1002E00004F411FA0CF118BF012121430843A3EBD8
:1002F0000C01CB1D4FEA00614FEA102042BF0020E5
:1003000010BC704700EBC35010440029A4BF10BCC0
:100310007047401C490008BF20F0010010BC704726
:1003200010B5141E73F1000408DA401C41F10001FD
:1003300092185B411A4301D120F0010010BD2DE954
:10034000F04D92469B4611B1B1FA81F202E0B0FA4B
:1003500080F220329046FFF78DFF04460F4640EAB8
:100360000A0041EA0B0153465A46084313D011468E
:1003700053EA010019D0C8F140025046FFF789FF47
:1003800005460E46504659464246FFF773FF08435E
:1003900005D0012004E020463946BDE8F08D00205C
:1003A000054346EAE0762C4337430A986305E40A9E
:1003B000A0EB08000022FD0A44EA47540A3002D5A7
:1003C00000200146E9E7010510196941DDE908450A
:1003D00000196941BDE8F04DA2E70000064C074D49
:1003E00006E0E06840F0010394E807009847103405
:1003F000AC42F6D3FFF77EFE480900086809000802
:1004000000BFFEE7704700000549096821F01001B0
:10041000034A1160114609680143116070470000EA
:100420000020024001460020034A106800F0380016
:100430000843106070470000002002402DE9F041A1
:10044000024600250026002000230024002791F802
:1004500003C00CF00F0591F803C00CF0100CBCF1B8
:10046000000F03D091F802C04CEA050591F800C0D6
:10047000BCF1000F31D0146800202BE04FF0010CCC
:100480000CFA00F3B1F800C00CEA03069E4220D13A
:1004900083004FF00F0C0CFA03F7BC4305FA03FC82
:1004A0004CEA040491F803C0BCF1280F06D14FF0C8
:1004B000010C0CFA00FCC2F814C00AE091F803C069
:1004C000BCF1480F05D14FF0010C0CFA00FCC2F84A
:1004D00010C0401C0828D1D31460B1F800C0BCF192
:1004E000FF0F34DD546800202EE000F1080C4FF0BF
:1004F000010808FA0CF3B1F800C00CEA03069E42AA
:1005000021D183004FF00F0C0CFA03F7BC4305FA1E
:1005100003FC4CEA040491F803C0BCF1280F05D198
:1005200000F1080C08FA0CF8C2F8148091F803C026
:10053000BCF1480F07D100F1080C4FF0010808FA90
:100540000CF8C2F81080401C0828CED35460BDE8D7
:10055000F081416170470161704700BFFEE700BF55
:10056000FEE7704710B500F01DF910BD04480368A0
:1005700040685A1C40F1000001490A604860704719
:10058000000000207047000029B1064A926902432A
:10059000044B9A6104E0034A92698243014B9A61D9
:1005A000704700000010024030B5002100220024F6
:1005B00000232D4D6D6805F00C0121B1042905D0F3
:1005C000082923D105E0294D056022E0274D05606B
:1005D0001FE0254D6D6805F47012234D6D6805F41C
:1005E0008034022505EB92421CB9214D554305602C
:1005F0000BE01D4D6D6805F400351DB11C4D5543D4
:10060000056002E0194D5543056002E0174D056095
:1006100000BF00BF144D6D6805F0F0010909154DCC
:100620006B5C0568DD4045600F4D6D6805F4E06169
:10063000090A104D6B5C4568DD4085600A4D6D68A8
:1006400005F46051C90A0B4D6B5C4568DD40C5601F
:10065000054D6D6805F44041890B074D6B5CC5681D
:10066000B5FBF3F5056130BD0010024000127A00C1
:1006700000093D000C0000201C00002010B50146C0
:100680000022002300204A11012A02D1094C2368CC
:1006900006E0022A02D1074C236A01E0054C636A96
:1006A00001F01F02012494401C400CB1012000E025
:1006B000002010BD0010024001460020034A50688F
:1006C00020F0F00008435060704700000010024026
:1006D0001149096821F480310F4A116011460968F7
:1006E00021F480211160B0F5803F03D0B0F5802F58
:1006F0000ED106E00849096841F48031064A1160CC
:1007000007E00549096841F4A021034A116000E0AF
:1007100000BF00BF704700000010024001490860A0
:10072000704700000000424201460020034A506822
:1007300020F4E06008435060704700000010024061
:1007400001460020034A506820F4605040EAC1008E
:100750005060704700100240014908667047000071
:100760000000424202460020044B586820F47C10EE
:1007700042EA01031843014B5860704700100240E1
:1007800001460020034A506820F0030008435060EF
:100790007047000000100240704710B5FFF7E6FEFA
:1007A00010BD00002DE9F04186B0142101A8FFF72B
:1007B000BEFC4FF0E020006920F001004FF0E02186
:1007C00008610021244A1160516001A8FFF7ECFE86
:1007D0004FF0E020006940F002004FF0E021086196
:1007E00000211E48C1774FF47A710298B0FBF1F4F2
:1007F000B4F1807F09D3E4084FF0E020006920F0D5
:1008000004004FF0E021086107E04FF0E0200069AC
:1008100040F004004FF0E0210861601E4FF0E0213D
:1008200048610846006940F001000861496921F00B
:100830007F41481CFFF7F5FC07463A460B4600206F
:100840000749FFF77FFC0546FFF7F8FC05490860FC
:1008500006B0BDE8F08100000000002000ED00E0DF
:1008600000408F400800002000BFFEE702E008C8FB
:10087000121F08C1002AFAD170477047002001E01A
:1008800001C1121F002AFBD17047000008B51020DB
:10089000FFF7BAFD0220FFF7C5FD4FF48030FFF7E8
:1008A00017FF00BF3120FFF7E9FE0028FAD04FF410
:1008B000E0114FF48030FFF755FF0120FFF74CFFA8
:1008C00000BF3920FFF7DAFE0028FAD00220FFF738
:1008D00057FF0020FFF7F0FE4FF48060FFF724FF82
:1008E0004FF48060FFF72CFF0020FFF717FFFFF7A2
:1008F00039FE01210820FFF747FE2020ADF8000057
:1009000010208DF8030002208DF8020069460C4883
:10091000FFF794FD13E020210948FFF71CFE002497
:1009200000E0641C07488442FBD320210448FFF701
:1009300010FE002400E0641C02488442FBD3EAE776
:10094000000C0140001BB7006809000800000020EF
:10095000200000006C080008880900082000002022
:10096000001000007C0800080000000000000000EB
:100970000000000000000000010203040102030463
:0809800006070809020406083D
:04000005080000ED02
:00000001FF
