:020000040800F2
:10000000401000200501000861060008590600089C
:100010005D06000809040008250C00080000000027
:10002000000000000000000000000000050A0008B9
:100030000D040008000000000D090008F10A000886
:100040001F0100081F0100081F0100081F01000810
:100050001F0100081F0100081F0100081F01000800
:100060001F01000811040008210400081F010008F6
:100070001F0100081F0100081F0100081F010008E0
:100080001F0100081F0100081F0100081F010008D0
:100090001F0100081F0100081F0100081F010008C0
:1000A0001F0100081F0100081F0100081F010008B0
:1000B0001F0100081F0100081F0100081F010008A0
:1000C0001F0100081F0100081F0100081F01000890
:1000D0001F0100081F0100081F0100081F01000880
:1000E0001F0100081F0100081F010008DFF810D0E1
:1000F00000F078F900480047490C0008AFF3008091
:10010000401000200648804706480047FEE7FEE70B
:10011000FEE7FEE7FEE7FEE7FEE7FEE7FEE7FEE7B7
:10012000F90A0008ED000008D2B201E000F8012B46
:10013000491EFBD270470022F6E710B513460A4667
:1001400004461946FFF7F0FF204610BD2DE9F04D9B
:1001500081EA030404F0004B21F0004514464FF0FF
:10016000000A23F0004150EA050220D054EA0102BF
:100170001DD0C5F30A570246C5F31303C1F313009C
:10018000C1F30A5640F4801543F48013A7EB060828
:10019000101BD64608F2FD3873EB050002D308F1B8
:1001A000010801E092185B41B8F1000F03DA00206A
:1001B0000146BDE8F08D00204FF4801106468446CC
:1001C0000EE0171B73EB050705D3121B63EB05034A
:1001D00006434CEA010C49084FEA300092185B4193
:1001E00050EA0107EDD152EA030012D082EA04007E
:1001F00083EA0501084305D0101BAB4106D201225A
:10020000002306E000224FF0004302E06FF00102FD
:1002100053101AEB06004CEB085110EB0A0041EBAF
:100220000B01BDE8F04D00F07FB80EB540F2334150
:1002300002910021CDE900110A460B4600F083F837
:1002400003B000BD01F0004330B421F0004150EA9A
:10025000010206D00A0DA2F56072C1F31301002A53
:1002600002DC30BC00207047440F44EAC104C100E6
:10027000E01830BC00EBC25000F01FB8202A04DBAD
:10028000203A00FA02F1002070479140C2F12003A9
:1002900020FA03F3194390407047202A04DB203AE8
:1002A00021FA02F00021704721FA02F3D040C2F196
:1002B000200291400843194670470029A8BF7047A3
:1002C000401C490008BF20F00100704710B4B0FA8C
:1002D00080FC00FA0CF050EA010404BF10BC704727
:1002E00049B1CCF1200421FA04F411FA0CF118BF41
:1002F000012121430843A3EB0C01CB1D4FEA006110
:100300004FEA102042BF002010BC704700EBC350E2
:1003100010440029A4BF10BC7047401C490008BF0E
:1003200020F0010010BC704710B5141E73F10004DA
:1003300008DA401C41F1000192185B411A4301D1D7
:1003400020F0010010BD2DE9F04D92469B4611B101
:10035000B1FA81F202E0B0FA80F220329046FFF763
:100360008DFF04460F4640EA0A0041EA0B0153465E
:100370005A46084313D0114653EA010019D0C8F178
:1003800040025046FFF789FF05460E465046594643
:100390004246FFF773FF084305D0012004E02046E2
:1003A0003946BDE8F08D0020054346EAE0762C434F
:1003B00037430A986305E40AA0EB08000022FD0A0F
:1003C00044EA47540A3002D500200146E9E7010516
:1003D00010196941DDE9084500196941BDE8F04D92
:1003E000A2E70000064C074D06E0E06840F001037C
:1003F00094E8070098471034AC42F6D3FFF77AFE32
:10040000FC0C00081C0D000800BFFEE77047000050
:1004100010B5024800F07CF910BD0000200000205B
:1004200010B5024800F074F910BD00003000002043
:100430000149086070470000140401400146002093
:100440000022074B1B6803EA0102054B14331B68AB
:100450000B4013B10AB1012000E0002070470000FA
:1004600000040140002123498279002A3AD00A463B
:10047000126803689A430B461A600A1D12680368E3
:100480009A430B1D1A60027911440A6803681A43E3
:100490000A60184A0832126803689A43154B0833F9
:1004A0001A601A1D126803689A43124B0C331A60C3
:1004B0004279102A0ED11A1F126803681A430D4B95
:1004C00008331A601A1D126803681A43094B0C336B
:1004D0001A600DE00749427911440A6803681A431B
:1004E0000A6005E0027911440A6803689A430A60C9
:1004F000704700000004014030B500228B071C0F3C
:100500000F2303FA04F20B4B8C1053F8243093435F
:10051000084C8D1044F8253023468C1053F82430B5
:100520008C07240F00FA04F42343024C8D1044F886
:10053000253030BD080001402DE9F041024600257C
:100540000026002000230024002791F803C00CF0AF
:100550000F0591F803C00CF0100CBCF1000F03D094
:1005600091F802C04CEA050591F800C0BCF1000FFB
:1005700031D0146800202BE04FF0010C0CFA00F38E
:10058000B1F800C00CEA03069E4220D183004FF070
:100590000F0C0CFA03F7BC4305FA03FC4CEA040405
:1005A00091F803C0BCF1280F06D14FF0010C0CFAF2
:1005B00000FCC2F814C00AE091F803C0BCF1480F77
:1005C00005D14FF0010C0CFA00FCC2F810C0401C21
:1005D0000828D1D31460B1F800C0BCF1FF0F34DD9E
:1005E000546800202EE000F1080C4FF0010808FAD2
:1005F0000CF3B1F800C00CEA03069E4221D183003F
:100600004FF00F0C0CFA03F7BC4305FA03FC4CEA5D
:10061000040491F803C0BCF1280F05D100F1080CC7
:1006200008FA0CF8C2F8148091F803C0BCF1480F26
:1006300007D100F1080C4FF0010808FA0CF8C2F8D5
:100640001080401C0828CED35460BDE8F0810AB168
:10065000016100E04161704700BFFEE700BFFEE7B7
:100660007047000070B5002100230F22C47804B346
:10067000154C246804F4E064C4F5E064210AC1F177
:100680000403CA40447804FA03F1847814402143F7
:1006900009010E4C0678A155047804F01F050124C9
:1006A000AC4005786D11AD0005F1E025C5F80041BD
:1006B00009E0047804F01F050124AC40044D0678DD
:1006C000761145F8264070BD0CED00E000E400E036
:1006D00080E100E002490143024A116070470000D6
:1006E0000000FA050CED00E010B5002220210248C0
:1006F000FFF7ADFF10BD0000000C014010B5012256
:1007000020210248FFF7A3FF10BD0000000C0140AC
:1007100010B50446A088FFF791FE012806D1E068D5
:1007200020B1A088FFF784FEE068804710BD00007C
:100730007FB5044600BF5D492068884204D101218D
:10074000042000F0E5F834E059492068884204D1DB
:100750000121082000F0DCF82BE05649206888428F
:1007600004D10121102000F0D3F822E05249206882
:10077000884204D10121202000F0CAF819E04F4935
:100780002068884204D10121402000F0C1F810E027
:100790004B492068884204D10121802000F0B8F83C
:1007A00007E048492068884203D10121801500F004
:1007B000AFF800BFA088ADF80C00A0798DF80F004D
:1007C000E0798DF80E0003A92068FFF7B5FE01213E
:1007D000084600F09DF84FF484312068401AC0F3B9
:1007E0008726002507E00120A840A188084000B125
:1007F00003E0681CC5B20F2DF5DD00BF2946304669
:10080000FFF77AFEA0880190207A8DF80800607AC0
:100810008DF8090000208DF80A0001A8FFF722FEDC
:10082000A088012803D106208DF8000031E0A088BF
:10083000022803D107208DF800002AE0A0880428B0
:1008400003D108208DF8000023E0A088082803D1F8
:1008500009208DF800001CE0A088102803D10A2090
:100860008DF8000015E0A088202807DBA088B0F5EF
:10087000007F03DC17208DF800000AE0A088B0F5A7
:10088000806F06DBA088B0F5004F02DC28208DF8D1
:100890000000A07A8DF80100E07A8DF802000120B6
:1008A0008DF803006846FFF7DDFE7FBD00080140BC
:1008B000000C0140001001400014014000180140EC
:1008C000001C0140002001407CB504460D46A08874
:1008D0000090207A8DF80400607A8DF805008DF87C
:1008E00006506846FFF7BEFD7CBD10B500F038F934
:1008F00010BD00000448036840685A1C40F1000025
:1009000001490A60486070470000002070470000FD
:1009100029B1064A92690243044B9A6104E0034AF2
:1009200092698243014B9A617047000000100240B7
:1009300030B500210022002400232D4D6D6805F004
:100940000C0121B1042905D0082923D105E0294D46
:10095000056022E0274D05601FE0254D6D6805F418
:100960007012234D6D6805F48034022505EB924228
:100970001CB9214D554305600BE01D4D6D6805F414
:1009800000351DB11C4D5543056002E0194D55431E
:10099000056002E0174D056000BF00BF144D6D6893
:1009A00005F0F0010909154D6B5C0568DD404560F7
:1009B0000F4D6D6805F4E061090A104D6B5C4568E8
:1009C000DD4085600A4D6D6805F46051C90A0B4D24
:1009D0006B5C4568DD40C560054D6D6805F44041C0
:1009E000890B074D6B5CC568B5FBF3F5056130BD40
:1009F0000010024000127A0000093D000C000020A7
:100A00001C000020704710B500F002F810BD000077
:100A10000CB50020019000903348006840F480300D
:100A20003149086000BF3048006800F40030009091
:100A30000198401C0190009818B90198B0F5A06F7A
:100A4000F1D12948006800F4003010B10120009075
:100A500001E0002000900098012843D1234800685D
:100A600040F01000214908600846006820F00700A7
:100A700008600846006840F0020008601A484068B4
:100A8000194948600846406848600846406840F494
:100A9000806048600846406820F47C104860084642
:100AA000406840F4E81048600846006840F08070F4
:100AB000086000BF0C48006800F000700028F9D002
:100AC0000948406820F0030007494860084640682C
:100AD00040F00200486000BF0348406800F00C008E
:100AE0000828F9D10CBD000000100240002002408F
:100AF00010B5FFF7FFFE10BD10B51548006840F0B7
:100B0000010013490860084640681249084010492E
:100B1000486008460068104908400D4908600846CA
:100B2000006820F4802008600846406820F4FE0039
:100B300048604FF41F008860FFF765FF4FF00060CA
:100B4000064908604FF4A060FFF7C4FD10BD000027
:100B5000001002400000FFF8FFFFF6FE08ED00E085
:100B60002DE9F04186B0142101A8FFF7E4FA4FF017
:100B7000E020006920F001004FF0E0210861002131
:100B8000244A1160516001A8FFF7D2FE4FF0E02027
:100B9000006940F002004FF0E021086100211E488A
:100BA000C1774FF47A710298B0FBF1F4B4F1807F11
:100BB00009D3E4084FF0E020006920F004004FF072
:100BC000E021086107E04FF0E020006940F00400F8
:100BD0004FF0E0210861601E4FF0E02148610846B7
:100BE000006940F001000861496921F07F41481C1B
:100BF000FFF71BFB07463A460B4600200749FFF765
:100C0000A5FA0546FFF71EFB0549086006B0BDE8DA
:100C1000F08100000000002000ED00E000408F4067
:100C20000800002000BFFEE702E008C8121F08C14C
:100C3000002AFAD170477047002001E001C1121F5D
:100C4000002AFBD17047000008B5FFF74EFE0121D6
:100C50000820FFF75DFE2020ADF8000010208DF881
:100C6000030002208DF8020069461E48FFF764FC6D
:100C70001D481E490860082088804820887100208F
:100C80000872082119484172002018498872002111
:100C90001648C17216481549C8600846FFF748FD56
:100CA00001211248FFF710FE0F481249086010207A
:100CB0008880482088710020087208210D48417200
:100CC00000200C49887200210A48C1720A4809496B
:100CD000C8600846FFF72CFD01210648FFF7F4FD28
:100CE00000BFFEE7000C014000180140200000207A
:100CF000E906000830000020FD0600081C0D000871
:100D00000000002020000000280C00083C0D000816
:100D10002000002020100000380C00080000000017
:100D200000000000000000000000000001020304B9
:0C0D30000102030406070809020406087B
:04000005080000ED02
:00000001FF
