:020000040800F2
:100000002010002005010008170400080F04000854
:10001000130400080904000801080008000000009B
:10002000000000000000000000000000950500082E
:100030000D04000800000000BD040008810600084F
:100040001F0100081F0100081F0100081F01000810
:100050001F0100081F0100081F0100081F01000800
:100060001F0100081F0100081F0100081F010008F0
:100070001F0100081F0100081F0100081F010008E0
:100080001F0100081F0100081F0100081F010008D0
:100090001F0100081F0100081F0100081F010008C0
:1000A0001F0100081F0100081F0100081F010008B0
:1000B0001F0100081F0100081F0100081F010008A0
:1000C0001F0100081F0100081F0100081F01000890
:1000D0001F010008B50700081F0100081F010008E4
:1000E0001F0100081F0100081F010008DFF810D0E1
:1000F00000F078F90048004725080008AFF30080B9
:10010000201000200648804706480047FEE7FEE72B
:10011000FEE7FEE7FEE7FEE7FEE7FEE7FEE7FEE7B7
:1001200089060008ED000008D2B201E000F8012BBA
:10013000491EFBD270470022F6E710B513460A4667
:1001400004461946FFF7F0FF204610BD2DE9F04D9B
:1001500081EA030404F0004B21F0004514464FF0FF
:10016000000A23F0004150EA050220D054EA0102BF
:100170001DD0C5F30A570246C5F31303C1F313009C
:10018000C1F30A5640F4801543F48013A7EB060828
:10019000101BD64608F2FD3873EB050002D308F1B8
:1001A000010801E092185B41B8F1000F03DA00206A
:1001B0000146BDE8F08D00204FF4801106468446CC
:1001C0000EE0171B73EB050705D3121B63EB05034A
:1001D00006434CEA010C49084FEA300092185B4193
:1001E00050EA0107EDD152EA030012D082EA04007E
:1001F00083EA0501084305D0101BAB4106D201225A
:10020000002306E000224FF0004302E06FF00102FD
:1002100053101AEB06004CEB085110EB0A0041EBAF
:100220000B01BDE8F04D00F07FB80EB540F2334150
:1002300002910021CDE900110A460B4600F083F837
:1002400003B000BD01F0004330B421F0004150EA9A
:10025000010206D00A0DA2F56072C1F31301002A53
:1002600002DC30BC00207047440F44EAC104C100E6
:10027000E01830BC00EBC25000F01FB8202A04DBAD
:10028000203A00FA02F1002070479140C2F12003A9
:1002900020FA03F3194390407047202A04DB203AE8
:1002A00021FA02F00021704721FA02F3D040C2F196
:1002B000200291400843194670470029A8BF7047A3
:1002C000401C490008BF20F00100704710B4B0FA8C
:1002D00080FC00FA0CF050EA010404BF10BC704727
:1002E00049B1CCF1200421FA04F411FA0CF118BF41
:1002F000012121430843A3EB0C01CB1D4FEA006110
:100300004FEA102042BF002010BC704700EBC350E2
:1003100010440029A4BF10BC7047401C490008BF0E
:1003200020F0010010BC704710B5141E73F10004DA
:1003300008DA401C41F1000192185B411A4301D1D7
:1003400020F0010010BD2DE9F04D92469B4611B101
:10035000B1FA81F202E0B0FA80F220329046FFF763
:100360008DFF04460F4640EA0A0041EA0B0153465E
:100370005A46084313D0114653EA010019D0C8F178
:1003800040025046FFF789FF05460E465046594643
:100390004246FFF773FF084305D0012004E02046E2
:1003A0003946BDE8F08D0020054346EAE0762C434F
:1003B00037430A986305E40AA0EB08000022FD0A0F
:1003C00044EA47540A3002D500200146E9E7010516
:1003D00010196941DDE9084500196941BDE8F04D92
:1003E000A2E70000064C074D06E0E06840F001037C
:1003F00094E8070098471034AC42F6D3FFF77AFE32
:10040000640800088408000800BFFEE7704700BFCA
:10041000FEE700BFFEE7704770B5002100230F2202
:10042000C47804B3154C246804F4E064C4F5E064B3
:10043000210AC1F10403CA40447804FA03F1847824
:100440001440214309010E4C0678A155047804F0AC
:100450001F050124AC4005786D11AD0005F1E025C4
:10046000C5F8004109E0047804F01F050124AC4000
:10047000044D0678761145F8264070BD0CED00E07D
:1004800000E400E080E100E002490143024A11601B
:10049000704700000000FA050CED00E010B500F018
:1004A00027F910BD0448036840685A1C40F1000059
:1004B00001490A6048607047000000207047000052
:1004C00030B500210022002400232D4D6D6805F079
:1004D0000C0121B1042905D0082923D105E0294DBB
:1004E000056022E0274D05601FE0254D6D6805F48D
:1004F0007012234D6D6805F48034022505EB92429D
:100500001CB9214D554305600BE01D4D6D6805F488
:1005100000351DB11C4D5543056002E0194D554392
:10052000056002E0174D056000BF00BF144D6D6807
:1005300005F0F0010909154D6B5C0568DD4045606B
:100540000F4D6D6805F4E061090A104D6B5C45685C
:10055000DD4085600A4D6D6805F46051C90A0B4D98
:100560006B5C4568DD40C560054D6D6805F4404134
:10057000890B074D6B5CC568B5FBF3F5056130BDB4
:100580000010024000127A0000093D000C0000201B
:100590001C000020704710B500F002F810BD0000EC
:1005A0000CB50020019000903348006840F4803082
:1005B0003149086000BF3048006800F40030009006
:1005C0000198401C0190009818B90198B0F5A06FEF
:1005D000F1D12948006800F4003010B101200090EA
:1005E00001E0002000900098012843D123480068D2
:1005F00040F01000214908600846006820F007001C
:1006000008600846006840F0020008601A48406828
:10061000194948600846406848600846406840F408
:10062000806048600846406820F47C1048600846B6
:10063000406840F4E81048600846006840F0807068
:10064000086000BF0C48006800F000700028F9D076
:100650000948406820F003000749486008464068A0
:1006600040F00200486000BF0348406800F00C0002
:100670000828F9D10CBD0000001002400020024003
:1006800010B5FFF70FFF10BD10B51548006840F01A
:1006900001001349086008464068124908401049A3
:1006A000486008460068104908400D49086008463F
:1006B000006820F4802008600846406820F4FE00AE
:1006C00048604FF41F008860FFF765FF4FF000603F
:1006D000064908604FF4A060FFF7D6FE10BD000089
:1006E000001002400000FFF8FFFFF6FE08ED00E0FA
:1006F0002DE9F04186B0142101A8FFF71CFD4FF051
:10070000E020006920F001004FF0E02108610021A5
:10071000244A1160516001A8FFF7D2FE4FF0E0209B
:10072000006940F002004FF0E021086100211E48FE
:10073000C1774FF47A710298B0FBF1F4B4F1807F85
:1007400009D3E4084FF0E020006920F004004FF0E6
:10075000E021086107E04FF0E020006940F004006C
:100760004FF0E0210861601E4FF0E021486108462B
:10077000006940F001000861496921F07F41481C8F
:10078000FFF753FD07463A460B4600200749FFF79F
:10079000DDFC0546FFF756FD0549086006B0BDE8DB
:1007A000F08100000000002000ED00E000408F40DC
:1007B000080000207047F0B50346002400260025FD
:1007C000002040F66A17B94200D100BF1846C1F3B5
:1007D000421401F01F06012707FA06F5012C01D18A
:1007E0000C3004E0022C01D1103000E014301AB1BA
:1007F00007682F43076002E00768AF430760F0BD5A
:1008000000BFFEE702E008C8121F08C1002AFAD1A3
:1008100070477047002001E001C1121F002AFBD180
:100820007047000008B54FF4A060FFF72DFEFFF7FA
:1008300035FE012240F225510948FFF7BCFF252073
:100840008DF8000000208DF8010002208DF80200D4
:1008500001208DF803006846FFF7DEFD00BFFEE7CC
:10086000003801408408000800000020200000003B
:1008700004080008A4080008200000200010000060
:100880001408000800000000000000000000000044
:100890000000000001020304010203040607080926
:0408A0000204060840
:04000005080000ED02
:00000001FF
