:020000040800F2
:10000000D820002005010008FD0C0008F50C0008B0
:10001000F90C0008410B0008E71F00080000000071
:10002000000000000000000000000000811B00082C
:10003000450B000800000000291A00086D1C00088C
:100040001F0100081F0100081F0100081F01000810
:100050001F0100081F0100081F0100081F01000800
:100060001F0100081F0100081F0100081F010008F0
:100070001F0100081F0100081F0100081F010008E0
:100080001F0100081F0100081F0100081F010008D0
:100090001F0100081F0100081F0100081F010008C0
:1000A0001F0100081F0100081F0100081F010008B0
:1000B0001F0100081F0100081F0100081F010008A0
:1000C0001F0100081F0100081F0100081F01000890
:1000D0001F010008991D00081F0100081F010008EA
:1000E0001F0100081F0100081F010008DFF810D0E1
:1000F00000F0DCFB00480047CD280008AFF300808B
:10010000D82000200648804706480047FEE7FEE763
:10011000FEE7FEE7FEE7FEE7FEE7FEE7FEE7FEE7B7
:10012000751C0008ED0000082DE9F05F0546002071
:1001300092469B4688460646814640241BE0284658
:1001400041464746224600F080FA53465A46C01AB6
:10015000914110D311461846224600F067FA2D1A35
:1001600067EB01084F4622460120002100F05EFAAD
:1001700017EB00094E41201EA4F10104DFDC4846C4
:1001800031462A464346BDE8F09F40EA01039B07FB
:1001900003D009E008C9121F08C0042AFAD203E0FC
:1001A00011F8013B00F8013B521EF9D27047D2B260
:1001B00001E000F8012B491EFBD270470022F6E750
:1001C00010B513460A4604461946FFF7F0FF2046CD
:1001D00010BD421C10F8011B0029FBD1801A70478A
:1001E00010B5002200E0521C835C8C5CA34201D15C
:1001F000002BF8D1D8B2E1B2401A10BD2DE9F0477A
:1002000091460F4680460446002614F8015B2DB146
:1002100000F03EFA0068405DC007F6D12B2D02D0F9
:100220002D2D18D0641E4A463946204600F042FA69
:1002300027B13968A14201D1C7F8008071054FF09C
:1002400002040BD54042002803DD01F0E1FE04600A
:10025000A007BDE8F08746F48066E4E70028F8DAF6
:1002600001F0D6FE04606FF00040F2E72DE9FE4F8A
:10027000804681EA0300C00F0C46009021F0004147
:1002800023F00045B8EB0200A94105D240462146C3
:1002900090461C460B46024623F00040104347D0D0
:1002A000270DC7F30A00C3F30A510290401A0190C8
:1002B00040286BDAC3F3130040F4801B0098924689
:1002C00020B10023D2EB030A63EB0B0B01985946D4
:1002D000C0F14002504600F0A9F906460D465046CE
:1002E0005946019A00F0C1F910EB08006141002461
:1002F00087EA115284EAE7731A4340D0009A62B346
:10030000019A012A4FEA075215DC001B61EB02013A
:100310004FF0004202EA0752CDE90042001C41F5CD
:10032000801132462B4600F05AFA03B0BDE8F08F38
:1003300040462146F9E7001B61EB0201001C41F534
:10034000801300185B412018A2F5001747EB03014A
:1003500040EAD570B6196D4111E06D084FEA3606D6
:1003600045EAC0754FEA0752001B61EB0201001C11
:1003700041F5801149084FEA3000001951413246D9
:100380002B4603B0BDE8F04F00F01ABA00980122E6
:1003900040000023D0EB020263EBE073009821469B
:1003A0004FEAE074B8EB000061EB0401E9E783F089
:1003B00000435BE781F0004158E72DE9FE4F81EAF9
:1003C000030404F0004421F0004100944FF0000BBE
:1003D00023F0004350EA01045ED052EA03045BD0EC
:1003E000C3F30A54C1F30A552C44A4F2F334019424
:1003F000A0FB0254C1F3130141F48011C3F31303B2
:1004000043F4801301FB024400FB034E840A970A65
:1004100044EA815447EA8357A4FB076802958D0A92
:1004200005FB07854FEA932C04FB0C542705029D1E
:100430004FEA065847EA1637B5EB08056EEB070C8E
:10044000870E920E47EA811742EA8312A7FB020148
:10045000B6EB0B0164EB00042B0D43EA0C335E1882
:1004600044EB1C50DA465146E7FB0201C5F3130486
:100470004FEA0B3343EA14534FEA0432019C43EA38
:100480000603A4F10C040294009CCDE900B400F032
:10049000A6F903B0BDE8F08F00200146F9E72DE989
:1004A000F04D81EA030404F0004B21F000451446AE
:1004B0004FF0000A23F0004150EA050220D054EA30
:1004C00001021DD0C5F30A570246C5F31303C1F359
:1004D0001300C1F30A5640F4801543F48013A7EBD0
:1004E0000608101BD64608F2FD3873EB050002D350
:1004F00008F1010801E092185B41B8F1000F03DA3E
:1005000000200146BDE8F08D00204FF48011064622
:1005100084460EE0171B73EB050705D3121B63EB34
:10052000050306434CEA010C49084FEA30009218D3
:100530005B4150EA0107EDD152EA030012D082EA92
:10054000040083EA0501084305D0101BAB4106D225
:100550000122002306E000224FF0004302E06FF08A
:10056000010253101AEB06004CEB085110EB0A0085
:1005700041EB0B01BDE8F04D00F022B90EB540F2A1
:10058000334102910021CDE900110A460B4600F0EB
:1005900026F903B000BD000030B5041E71F100045F
:1005A00004DB4FF00044404264EB0101141E73F180
:1005B000000405DB1C464FF00043524263EB04038A
:1005C000994208BF904230BD01F0004330B421F0A1
:1005D000004150EA010206D00A0DA2F56072C1F393
:1005E0001301002A02DC30BC00207047440F44EAAB
:1005F000C104C100E01830BC00EBC25000F0A9B843
:1006000030B50B46014600202022012409E021FAE2
:1006100002F59D4205D303FA02F5491B04FA02F5DF
:100620002844151EA2F10102F1DC30BD202A04DBB2
:10063000203A00FA02F1002070479140C2F12003F5
:1006400020FA03F3194390407047202A04DB203A34
:1006500021FA02F00021704721FA02F3D040C2F1E2
:1006600020029140084319467047202A06DBCB1729
:10067000203A41FA02F043EAE07306E041FA02F35D
:10068000D040C2F120029140084319467047000053
:1006900000487047D42900083A2800D2303820F0AA
:1006A0002002412A01D3A2F13700884201D34FF042
:1006B000FF3070472DE9F05F82460078002715462D
:1006C0008B460AF10104B946302801D09DB113E0F0
:1006D00014F8010B0127782803D0582801D045B120
:1006E0000AE00DB1102D07D10027102514F8010BD9
:1006F00002E0082500E00A250026B0460EE005FBD2
:10070000080005FB06F1012701EB10461FFA80F8EF
:10071000B6F5803F00D3B94614F8010B2946FFF720
:10072000BBFF0028EBDABBF1000F05D00FB1641E50
:1007300000E05446CBF80040B9F1000F06D001F0BC
:1007400067FC02210160C81EBDE8F09F48EA064030
:10075000FAE70029A8BF7047401C490008BF20F0F5
:100760000100704710B4B0FA80FC00FA0CF050EAB7
:10077000010404BF10BC704749B1CCF1200421FA38
:1007800004F411FA0CF118BF012121430843A3EB33
:100790000C01CB1D4FEA00614FEA102042BF002040
:1007A00010BC704700EBC35010440029A4BF10BC1C
:1007B0007047401C490008BF20F0010010BC704782
:1007C00010B5141E73F1000408DA401C41F1000159
:1007D00092185B411A4301D120F0010010BD2DE9B0
:1007E000F04D92469B4611B1B1FA81F202E0B0FAA7
:1007F00080F220329046FFF719FF04460F4640EA88
:100800000A0041EA0B0153465A46084313D01146E9
:1008100053EA010019D0C8F140025046FFF715FF16
:1008200005460E46504659464246FFF7FFFE08432E
:1008300005D0012004E020463946BDE8F08D0020B7
:10084000054346EAE0762C4337430A986305E40AF9
:10085000A0EB08000022FD0A44EA47540A3002D502
:1008600000200146E9E7010510196941DDE9084565
:1008700000196941BDE8F04DA2E7C1F30A52C1F386
:10088000130140F2FF3341F480119A4202DA002052
:100890000146704740F233439A42A2F2334202DCEF
:1008A0005242FFF7D2BEFFF7C1BE0000064C074D13
:1008B00006E0E06840F0010394E807009847103430
:1008C000AC42F6D3FFF716FCD8290008F829000837
:1008D00001480068704700000400002001480068DB
:1008E000704700000000002008B50121082001F039
:1008F000BDF82020ADF8000010208DF80300022084
:100900008DF802006946024800F01DF908BD00009C
:10091000000C014070B51D48007810B1012832D19B
:1009200018E000F04DFA1A4AD2E90053194A126849
:10093000AA1843F10003801A99410AD320211648CE
:1009400000F0D4F900F03CFA114A03C201200F492B
:10095000087019E000F034FA0D4AD2E900520F4B4A
:100960001B68EB1842F10002C01A91410AD3202102
:10097000094800F0BDF900F023FA054A03C200203F
:100980000249087000E000BF00BF70BD08000020F1
:100990001000002004000020000C01400000002096
:1009A0000149086070470000040000200149086008
:1009B000704700000000002010B50F480F49086084
:1009C0004FF4E130486000200881488188810C2084
:1009D000C8810020087448748020488288820321DE
:1009E0000648818300F07FFC0448054908600846FA
:1009F00000F0CEFA10BD0000003801404400002095
:100A0000900000201CB5264800F02CFB012846D1A0
:100A1000234800F0A8FA044622A12046FFF7E0FB95
:100A2000002825D11E4800F0A1FA022804D021A1F7
:100A3000294800F00CFF31E001AA0021184800F01D
:100A4000AEFA28B16A460121154800F0A8FA20B98B
:100A500022A1214800F0FBFE20E00198FFF7A6FF4D
:100A60000098FFF79DFF23A11B4800F0F0FE15E062
:100A700022A12046FFF7B4FB60B9FFF72FFF0190DA
:100A8000FFF726FF009021A11348DDE9003200F0B6
:100A90004CFD03E022A1104800F0D9FE00BF1CBDB0
:100AA00090000020536574426C696E6B50617261F6
:100AB0006D0000004552524F522C20696E636F72D8
:100AC00072656374206E756D206F66206172677346
:100AD0000D0A0D0A00000000440000204552524F4C
:100AE000522C20696E76616C6964206172670D0A10
:100AF0000D0A00004F4B0D0A0D0A000047657442B5
:100B00006C696E6B506172616D0000004F4B0D0A95
:100B10004F6E3D25642C4F66663D25640D0A00002E
:100B20004552524F522C20756E737570706F7274EF
:100B3000656420636D64206E616D650D0A0D0A00A9
:100B400000BFFEE770472DE9F04102460025002670
:100B5000002000230024002791F803C00CF00F05AB
:100B600091F803C00CF0100CBCF1000F03D091F809
:100B700002C04CEA050591F800C0BCF1000F31D06D
:100B8000146800202BE04FF0010C0CFA00F3B1F8D0
:100B900000C00CEA03069E4220D183004FF00F0CE8
:100BA0000CFA03F7BC4305FA03FC4CEA040491F881
:100BB00003C0BCF1280F06D14FF0010C0CFA00FC69
:100BC000C2F814C00AE091F803C0BCF1480F05D187
:100BD0004FF0010C0CFA00FCC2F810C0401C0828B1
:100BE000D1D31460B1F800C0BCF1FF0F34DD5468FC
:100BF00000202EE000F1080C4FF0010808FA0CF379
:100C0000B1F800C00CEA03069E4221D183004FF0E8
:100C10000F0C0CFA03F7BC4305FA03FC4CEA04047E
:100C200091F803C0BCF1280F05D100F1080C08FAB7
:100C30000CF8C2F8148091F803C0BCF1480F07D13A
:100C400000F1080C4FF0010808FA0CF8C2F8108007
:100C5000401C0828CED35460BDE8F081F0B50A46A8
:100C6000002300240021002500F00046B6F1004FCB
:100C700002D11D4EF16901E01B4E7168C0F30345BE
:100C800083B200F44016B6F5401F08D121F0706120
:100C9000154E766826F07066134F7E6012E000F401
:100CA0008016B6F5801F06D1032606FA05F4A14387
:100CB00041F0706106E0460D360103FA06F6B143D5
:100CC00041F0706122B1460D360103FA06F6314358
:100CD00000F00046B6F1004F02D1034EF16101E091
:100CE000014E7160F0BD000000000140416170479D
:100CF0000161704700BFFEE700BFFEE770470000DC
:100D000070B5002100230F22C47804B3154C246869
:100D100004F4E064C4F5E064210AC1F10403CA40AC
:100D2000447804FA03F184781440214309010E4CFD
:100D30000678A155047804F01F050124AC4005781D
:100D40006D11AD0005F1E025C5F8004109E004781A
:100D500004F01F050124AC40044D0678761145F8D7
:100D6000264070BD0CED00E000E400E080E100E012
:100D700070B504460D462946204600F02FF870BD98
:100D800070B504460D46164632462946204600F008
:100D900045F870BD13B5044601A9204600F08FF850
:100DA0001CBD10B50446204600F0BAF810BD70B561
:100DB00005460C4622460121284600F0BEF870BDCB
:100DC00001490868496870471800002010B500F014
:100DD00081FF10BD00210180418070472DE9F04165
:100DE00004460D46204600F09BF810B90020BDE8EF
:100DF000F0812688E368A78806FB07313A4600267B
:100E000006FB0750FFF7C1F92088401CE18890FBE2
:100E1000F1F201FB120020800120E8E72DE9F05FEC
:100E200004468A4615464FF0000B204600F078F83D
:100E30004119E088401E81421DDB204600F070F819
:100E40004119E088401EA1EB0008204600F068F838
:100E5000404508D22046FFF7BDFF204600F060F86D
:100E6000A8EB000B07E020884044E188B0FBF1F2DA
:100E700001FB1200208066885F4610E0B4F804C0D1
:100E8000E36806FB0C30624607FB0CA1FFF77DF917
:100E9000E188701CB0FBF1F201FB12067F1CA5EB90
:100EA0000B00B842EAD86680204600F039F8814647
:100EB0002189494501DAA4F80890BDE8F09F2DE9A1
:100EC000F04104460E46204600F02AF8E188491E0B
:100ED000884207D12088401CE18890FBF1F201FB99
:100EE000120020806788E368B4F804C007FB0C3068
:100EF0006246002707FB0C61FFF747F96088401C3A
:100F0000E18890FBF1F201FB12006080204600F0C6
:100F100007F805462089A84200DA2581BDE8F0815E
:100F200001464888CA8810440A88801ACA8890FBFB
:100F3000F2F302FB130080B2704770B504460E4610
:100F40001546A680A18801FB05F001F0CBFCE0600E
:100F5000E06808B9002070BDE58000202080608036
:100F600020810120F7E70146081D704770B505464E
:100F700000242846FFF7F7FF064601E0601C84B214
:100F80003146284600F048F8061EF7D1204670BDCD
:100F900010B504464021201DFFF710F910BDF8B52B
:100FA00006460F4615463946304600F01CF8044602
:100FB0000CB90020F8BD01F02BF8002101600022DF
:100FC00069462046FFF71AF928600098A04201D12F
:100FD0000020EFE701F01CF80068022801D1002092
:100FE000E8E70120E6E72DE9F04107460D463846DF
:100FF000FFF7B9FF0446002608E02146384600F016
:101000000BF8044604B903E0701C86B2AE42F4DD6E
:1010100000BF2046BDE8F08170B504460D46201D96
:10102000854202D34030854201D9002070BD284658
:10103000FFF7CFF808B90020F8E72846FFF7C9F80E
:101040002844461C201D864202D34030864201D9E6
:101050000020EBE73046FFF7BCF808B90020E5E7D1
:101060003046E3E72DE9F04104462068808B0128F3
:101070000AD02068808B022806D02068808B032845
:1010800002D00020BDE8F08100234022211D20680D
:1010900000F06BFA08B90020F4E7201DFFF799F87B
:1010A0000646002504E00021201D4155681C85B23C
:1010B000201D405D2028F6D02068808B012804D0B8
:1010C000022803D003280DD105E000BF0022701EC6
:1010D000211D0A5407E00022B01E211D0A54701E73
:1010E0000A5400E000BF00BF4FF0000847E0B8F12D
:1010F000010F1FD1201D405D22283ED1201D691CFB
:10110000405C202802D0201D405C88B90021201DB1
:101110004155681C85B204E00021201D4155681C22
:1011200085B2201D405D2028F6D04FF0000824E055
:101130000020A7E7201D405D202818D104E00021F1
:10114000201D4155681C85B2201D691C405C20286B
:10115000F5D00021201D4155681C85B2201D405D41
:1011600022280AD1201D41554FF0010805E0201D1D
:10117000405D222801D1002084E7681C85B2B54279
:10118000B5D30025002701E0681C85B2201D405D15
:101190000028F9D012E0681CB04206D2201D405D44
:1011A00018B9201D691C405C30B1201D425D3846D5
:1011B000791C8FB2211D0A54681C85B2B542EAD34E
:1011C00004E00021201DC155781C87B2402FF8DBB8
:1011D000201DFEF7FEFF08B9002053E7012051E76C
:1011E0000448036840685A1C40F1000001490A6045
:1011F000486070471800002070B504460D4614483A
:10120000844204D10121880300F030FC1EE0114823
:10121000844204D10121480400F008FC16E00E4885
:10122000844204D10121880400F000FC0EE00B4848
:10123000844204D10121C80400F0F8FB06E008480C
:10124000844203D10121080500F0F0FB70BD0000CD
:10125000003801400044004000480040004C00407D
:1012600000500040014600200E4B0A689A4201D10E
:10127000252016E00C4B0A689A4201D1262010E086
:101280000A4B0A689A4201D127200AE0084B0A68F3
:101290009A4201D1342004E0064B0A689A4200D1F8
:1012A00035207047003801400044004000480040AD
:1012B000004C00400050004010B5044640F225515B
:1012C000206800F0CBFD012802D1204600F084F810
:1012D00040F22771206800F0C1FD012802D12046AC
:1012E00000F00AF910BD10B586B0044600200E3497
:1012F00084F83A00E08620872078C0F3C000A0740C
:101300002078C0F38000E074A07C0E3C012802D15C
:10131000204600F0A9FA94F82100012802D12046C5
:1013200000F096F9206800F04BFD01212068FFF7DE
:1013300063FF606802900020ADF81400ADF8120061
:10134000E089ADF812006089ADF81000A089ADF811
:101350000E002089ADF80C0002A9206800F0CEFD37
:101360002046FFF77FFF8DF80400207C8DF80500F4
:10137000607C8DF8060001208DF8070001A8FFF7BA
:10138000BFFC94F82100012805D1012240F225512B
:10139000206800F08DFD94F82000012809D1618AB1
:1013A00004F12400FFF703FD012802D0002006B05D
:1013B00010BD94F82100012808D1A18A04F134005D
:1013C000FFF7F5FC012801D00020F0E7012120689B
:1013D00000F0EAFC0120EAE770B50446206800F05E
:1013E000F9FDC5B2A08B002878D0A08B012804D0CD
:1013F000022826D0032870D147E00D2D18D1608F28
:10140000012815DD608F401EA4F8440004F134006B
:10141000FFF7C7FC401CA4F84600B4F84610608FE4
:1014200081420DD1B4F84600401EA4F8460007E002
:10143000B4F8440020B1B4F84400401EA4F84400BD
:101440004BE00A2D18D1608F012815DD608F401EFA
:10145000A4F8440004F13400FFF7A3FC401CA4F8F6
:101460004600B4F84610608F81420DD1B4F84600B2
:10147000401EA4F8460007E0B4F8440020B1B4F8D8
:101480004400401EA4F8440027E00A2D1CD194F823
:1014900048000D2818D1608F022815DD608F801E4E
:1014A000A4F8440004F13400FFF77BFC401CA4F8CE
:1014B0004600B4F84610608F81420DD1B4F8460062
:1014C000401EA4F8460007E0B4F8440020B1B4F888
:1014D0004400401EA4F8440000BF00BF84F84850F8
:1014E000B4F8440010B90020A4F84600294604F1DD
:1014F0003400FFF74FFC70BD38B5044604F12400FA
:10150000FFF74FFC30B9002240F22771206800F04D
:10151000CFFC09E0694604F12400FFF729FC9DF89F
:101520000010206800F05BFD38BD0FB430B5C1B0CD
:10153000044694F82000012803D041B030BC5DF887
:1015400014FB46A8009001A8009A459900F04EFDB2
:101550000020009001A8FEF73CFE85B22A4601A9B2
:10156000204600F059F900BFE7E72DE9F84F04469F
:10157000894692461D460026B34625B1FFF720FC5A
:10158000471941F1000800BF1DB1B4F8440000281C
:101590004FD0002240F22551206800F089FC1DB197
:1015A000B4F8440000B945E034E0694604F1340081
:1015B000FFF7DEFBAAF10100B04206DD9DF8002036
:1015C0003046711C8EB209F8002034F8460F401ED8
:1015D000208034F8460910B90020A4F84400A08BFC
:1015E000032806D1BBF10D0F03D19DF800000A2896
:1015F0000DD0A08B012803D19DF800000D2806D046
:10160000A08B022804D19DF800000A2800D105E033
:101610009DF800B0B4F844000028C6DC00BF0020EC
:1016200009F80600012240F22551206800F040FC34
:1016300009E000BF681C0028A6D0FFF7C1FBC01B53
:1016400071EB0801A0D300BF3046BDE8F88F000061
:1016500038B5044648208DF8030065492068884263
:1016600027D1A06960B90121042000F0FFF94FF4EF
:101670008060ADF8000069465E48FFF764FAB5E0A7
:10168000A069012813D10121084600F0EFF90121DA
:101690000420FFF7E3FA0121082000F0E7F9802099
:1016A000ADF8000069465448FFF74DFA9EE000206F
:1016B00038BD52492068884226D1A06958B9012115
:1016C000042000F0D3F90820ADF80000694649482D
:1016D000FFF739FA8AE0A069012813D101210846F1
:1016E00000F0C4F901210820FFF7B8FA01212020F9
:1016F00000F0BCF94020ADF8000069464048FFF713
:1017000022FA73E00020D3E73E492068884244D1A2
:10171000A06960B90121082000F0A8F94FF4006029
:10172000ADF8000069463448FFF70DFA5EE0A069A5
:10173000012814D10121084600F098F9012132480E
:10174000FFF78CFA0121102000F090F94FF40060AF
:10175000ADF8000069462D48FFF7F5F946E0A069AD
:10176000032818D10121084600F080F901212648FC
:101770002030FFF773FA0121202000F077F94FF4B1
:101780000070ADF8000048208DF8030069461C4841
:10179000FFF7D9F92AE000208AE71D49206888422E
:1017A0000FD10121102000F061F94FF40060ADF875
:1017B000000048208DF8030069461448FFF7C3F97C
:1017C00014E01449206888420ED10121202000F045
:1017D0004DF90420ADF8000048208DF8030069465B
:1017E0000748FFF7B0F901E0002061E701205FE75B
:1017F0000038014000080140000C01400044004056
:101800000014014000480040100014000010014086
:10181000004C00400050004070B504460D4616468E
:1018200094F82000012811D1002240F2277120688D
:1018300000F03EFB3246294604F12400FFF7A0FAEF
:10184000012240F22771206800F032FB70BD70B5B4
:1018500005460C462046FEF7BCFC86B232462146C1
:101860002846FFF7D9FF70BD38B5044618208DF81B
:10187000030001208DF8020061492068884227D1C9
:10188000A06960B90121042000F0F0F84FF4007065
:10189000ADF8000069465B48FFF755F9ADE0A06977
:1018A000012813D10121084600F0E0F801210420AD
:1018B000FFF7D4F90121082000F0D8F84020ADF856
:1018C000000069465048FFF73EF996E0002038BD19
:1018D0004E492068884226D1A06958B901210420C8
:1018E00000F0C4F80420ADF8000069464548FFF751
:1018F0002AF982E0A069012813D10121084600F0ED
:10190000B5F801210820FFF7A9F90121202000F0F6
:10191000ADF82020ADF8000069463D48FFF713F907
:101920006BE00020D3E73B492068884241D1A069A1
:1019300060B90121082000F099F84FF48060ADF8FB
:10194000000069463048FFF7FEF856E0A06901281C
:1019500014D10121084600F089F801212E48FFF733
:101960007DF90121102000F081F84FF48060ADF87E
:10197000000069462948FFF7E6F83EE0A069032821
:1019800015D10121084600F071F8012122482030CC
:10199000FFF764F90121202000F068F84FF480700F
:1019A000ADF8000069461A48FFF7CDF825E00020A1
:1019B0008DE71B49206888420CD10121102000F0DE
:1019C00055F84FF48060ADF8000069461348FFF702
:1019D000BAF812E01349206888420CD10121102086
:1019E00000F044F84FF48050ADF8000069460B4811
:1019F000FFF7A9F801E0002069E7012067E7000090
:101A00000038014000080140000C01400044004043
:101A10000014014000480040100014000010014074
:101A2000004C0040005000407047000029B1064AB9
:101A3000D2690243044BDA6104E0034AD26982436B
:101A4000014BDA61704700000010024029B1064ADC
:101A500012690243044B1A6104E0034A126982438B
:101A6000014B1A61704700000010024029B1064A7C
:101A700092690243044B9A6104E0034A92698243EB
:101A8000014B9A61704700000010024029B1064ADC
:101A9000D2680243044BDA6004E0034AD26882430E
:101AA000014BDA60704700000010024030B50021A1
:101AB0000022002400232D4D6D6805F00C0121B19A
:101AC000042905D0082923D105E0294D056022E02D
:101AD000274D05601FE0254D6D6805F47012234DFC
:101AE0006D6805F48034022505EB92421CB9214D46
:101AF000554305600BE01D4D6D6805F400351DB1C3
:101B00001C4D5543056002E0194D5543056002E048
:101B1000174D056000BF00BF144D6D6805F0F00162
:101B20000909154D6B5C0568DD4045600F4D6D681A
:101B300005F4E061090A104D6B5C4568DD40856085
:101B40000A4D6D6805F46051C90A0B4D6B5C456820
:101B5000DD40C560054D6D6805F44041890B074DBA
:101B60006B5CC568B5FBF3F5056130BD0010024044
:101B700000127A0000093D002400002034000020FB
:101B8000704710B500F002F810BD00000CB5002041
:101B9000019000903348006840F48030314908607B
:101BA00000BF3048006800F4003000900198401CED
:101BB0000190009818B90198B0F5A06FF1D12948AB
:101BC000006800F4003010B10120009001E0002016
:101BD00000900098012843D12348006840F010008D
:101BE000214908600846006820F0070008600846A0
:101BF000006840F0020008601A48406819494860CF
:101C00000846406848600846406840F48060486084
:101C10000846406820F47C1048600846406840F45C
:101C2000E81048600846006840F08070086000BF17
:101C30000C48006800F000700028F9D0094840689E
:101C400020F00300074948600846406840F0020061
:101C5000486000BF0348406800F00C000828F9D134
:101C60000CBD0000001002400020024010B5FFF73C
:101C7000B7FA10BD10B51348006840F001001149D3
:101C8000086008464068104908400E494860084608
:101C900000680E4908400B4908600846006820F4B7
:101CA000802008600846406820F4FE0048604FF439
:101CB0001F008860FFF765FF4FF00060044908606F
:101CC00010BD0000001002400000FFF8FFFFF6FE0C
:101CD00008ED00E02DE9F04186B0142101A8FEF7DF
:101CE0006DFA4FF0E020006920F001004FF0E02194
:101CF00008610021244A1160516001A8FFF7D6FE57
:101D00004FF0E020006940F002004FF0E021086150
:101D100000211E48C1774FF47A710298B0FBF1F4AC
:101D2000B4F1807F09D3E4084FF0E020006920F08F
:101D300004004FF0E021086107E04FF0E020006967
:101D400040F004004FF0E0210861601E4FF0E021F8
:101D500048610846006940F001000861496921F0C6
:101D60007F41481CFEF70AFC07463A460B46002016
:101D70000749FEF794FB0546FEF726FC0549086077
:101D800006B0BDE8F08100001800002000ED00E082
:101D900000408F402000002010B50248FFF78CFA69
:101DA00010BD00004400002021B1828942F400529D
:101DB000828104E082894DF6FF731A408281704768
:101DC00010B504462048844209D101218803FFF759
:101DD0005DFE00214FF48040FFF758FE32E01B48C3
:101DE000844209D101214804FFF730FE00214FF45D
:101DF0000030FFF72BFE25E01548844209D1012170
:101E00008804FFF723FE00214FF48020FFF71EFE19
:101E100018E01048844209D10121C804FFF716FEDA
:101E200000214FF40020FFF711FE0BE00A48844226
:101E300008D101210805FFF709FE00214FF48010A9
:101E4000FFF704FE10BD00000038014000440040D0
:101E500000480040004C00400050004070B5024671
:101E6000002400230025002040F66A16B14200D16C
:101E700000BFC1F3421501F01F03012606FA03F368
:101E8000012D02D19689334006E0022D02D1168A37
:101E9000334001E0968A33400C12012606FA04F41E
:101EA0001688344013B10CB1012000E0002070BD51
:101EB000F0B50346002400260025002040F66A17EE
:101EC000B94200D100BF1846C1F3421401F01F0609
:101ED000012707FA06F5012C01D10C3004E0022C91
:101EE00001D1103000E014301AB107682F430760A9
:101EF00002E00768AF430760F0BD00002DE9F0473E
:101F000086B005460E460024A24600BFA146002723
:101F1000B08900B100BF2F462C8A4CF6FF700440F8
:101F2000F08804432C82AC894EF6F3100440B0884C
:101F300031890843718908430443AC81AC8A4FF668
:101F4000FF400440B0890443AC8201A8FFF7AEFD16
:101F50001F48874202D1DDF810A001E0DDF80CA097
:101F6000A88900F4004040B10AEBCA0000EB0A1057
:101F700031684900B0FBF1F807E00AEBCA0000EB5A
:101F80000A1031688900B0FBF1F86420B8FBF0F06A
:101F900004012009642101FB1089A88900F4004094
:101FA00040B1322000EBC900B0FBF1F000F00700B7
:101FB000044308E0322000EB09106421B0FBF1F08B
:101FC00000F00F0004432C8106B0BDE8F08700004C
:101FD0000038014001468888C0F308007047C1F30B
:101FE00008028280704700BFFEE7000037B5144644
:101FF0000846064B6A46214600F0E0F8044669466A
:10200000002000F05EFC20463EBD0000C328000812
:10201000004870473800002002E008C8121F08C1BD
:10202000002AFAD170477047002001E001C1121F59
:10203000002AFBD1704700002DE9FF5F82B000212C
:10204000DDE90430020DDDF840B0034318D044F65A
:102050001050A2F2FF3242431514119801281FD0EC
:10206000A5EB0B00401C5FEA000A4FF000064E4F44
:10207000DFF83891B046504615D5CAF1000413E098
:10208000119801244AA3012801D16FEA0B0102989B
:10209000119AC0E90031C0E9024206B0BDE8F09FE4
:1020A000CBF10000DFE704460021404A491842EB2B
:1020B0000450CDE9001012E0E00707D032463B465D
:1020C00040464946FEF779F98046894632463B4606
:1020D00010461946FEF771F906460F466410002CAB
:1020E000EAD1DDE90401DDE90023BAF1000F06DAE7
:1020F000FEF763F942464B46FEF75FF905E0FEF74F
:10210000CEF942464B46FEF7CAF904460E46002277
:10211000284BFEF741FA03D84FF0FF30014607E0A5
:102120000022254B20463146FEF7A0F8FEF7A5FB1E
:10213000102409E0002C0ADB0A220023FDF7F4FF3B
:10214000039B30321A55641E50EA0102F2D1641C1E
:10215000039AC4F111031444119A012A03D00122F5
:1021600008430DD10AE0084304D000204FF0110BC2
:10217000119072E7A3EB0B056D1E0DE05B4504DDCE
:102180004FF0000205F1010504E003DA4FF0000210
:10219000A5F10105002AECD002981199C0E902319D
:1021A000C0E9004579E70000000014400000F03F5E
:1021B000300000000000F0430000E03F2DE9FF4F39
:1021C00095B09A46884606460025EEE1252877D147
:1021D00000242746F94A0121039400E0044316F83D
:1021E000013F203B01FA03F01042F7D130782A2852
:1021F00011D06FF02F033078A0F13002092A16D8E1
:10220000039A44F0020402EB820203EB4202104400
:10221000761C0390EFE758F8042B0392002A03DAA8
:10222000504244F40054039044F00204761C307889
:102230002E2816D116F8010F44F004042A280DD0D8
:102240006FF02F023078A0F13003092B09D807EB8B
:10225000870302EB4303C718761CF3E758F8047BA7
:10226000761C30786C280FD006DC4C2817D06828F4
:102270000DD06A2814D104E0742810D07A280FD128
:102280000DE044F400140AE044F4801401E044F446
:1022900040147278824202D104F58014761C761CB8
:1022A000307866280BD013DC582877D009DC00285A
:1022B00075D04528F6D04628F4D047281AD193E1A6
:1022C00018E0632835D0642879D0652812D18BE1D5
:1022D000702873D008DC6728F1D069286FD06E2889
:1022E0000DD06F2806D1ACE073282CD0752874D09F
:1022F000782853D05246179990476D1C54E1C4F387
:102300000250022809D003280DD0D8F80010042864
:102310000DD00D6008F1040846E1D8F80010EA1766
:10232000C1E90052F6E7D8F800100D80F2E70D7011
:10233000F0E718F8041B8DF8001000208DF801005C
:10234000EB46012003E058F804BB4FF0FF30610773
:102350004FF0000102D40DE009F101018946B942B4
:102360000FDA8145F8DB1BF809100029F4D108E0E9
:1023700009F1010189468142FADB1BF809100029A5
:10238000F6D103985346A0EB090721463846179A21
:1023900000F080FA284400EB090507E044E008E17A
:1023A0000DE01BF8010B524617999047B9F101094E
:1023B000F7D2534621463846179AF2E039E00A210F
:1023C000C4F302524FF0000B0091022A06D058F8D5
:1023D000040BC117032A09D00AE023E008F1070023
:1023E00020F00702F2E80201904605E000B2C117B2
:1023F000042A01D140B2C117002906DA0A46002199
:10240000404261EB02012D2202E0220504D52B227D
:102410008DF80420012203E0E20701D02022F7E733
:10242000914657E00A2100E010214FF0000B009187
:102430000BE010214FF0000B44F00404082700913A
:1024400003E008204FF0000B0090C4F30252022A70
:1024500005D058F8040B0021032A08D008E008F141
:10246000070020F00702F2E80201904603E080B284
:10247000042A00D1C0B24FF0000922072AD53278D1
:10248000702A07D0DDF800C08CF0100C5CEA0B0C51
:1024900005D00EE040228DF80420012208E050EA29
:1024A000010306D030238DF804308DF80520022278
:1024B0009146009B83F0080353EA0B030AD150EACC
:1024C000010201D1620705D530228DF804204FF0BA
:1024D00001097F1E3278582A04D039A20C920CAA26
:1024E00002920BE03BA2F9E75B46009AFDF71CFE67
:1024F0000C9B9B5C029A521E0292137050EA0102DE
:10250000F2D1029804A9081A00F1200B600702D545
:1025100024F4803400E001275F4502DDA7EB0B00C7
:1025200000E0002000EB0B01009003984944401AA2
:102530000390E00306D453462146179A039800F00F
:10254000A9F90544002706E001A85246C05D179985
:1025500090476D1C7F1C4F45F6DBE0030CD55346BE
:102560002146179A039800F095F9054404E03020BD
:102570005246179990476D1C0099481E00900029FB
:10258000F5DC08E00298029952460078491C029155
:10259000179990476D1CBBF10001ABF1010BF1DC09
:1025A0005BE100F065F90544761C307800287FF483
:1025B0000DAE19B02846BDE8F08F000009280100D3
:1025C00030313233343536373839616263646566A9
:1025D000000000003031323334353637383941426B
:1025E0004344454600000000600700D4062708F178
:1025F000070020F00700F0E80223804603F0004CBB
:102600005FEA0C0001D097A009E0200501D596A053
:1026100005E0E00701D095A001E0AFF24C00139077
:10262000307823F0004365280CD006DC452809D01B
:1026300046281DD047287FD13BE0662818D0672860
:102640007AD136E00021112F01DB112000E0781C47
:10265000CDE9000104A90CA8FFF7EEFCDDE90D01AE
:102660000C9A4FF0000B07F10109109200914EE017
:102670004FF000400097CDE9011004A90CA8FFF726
:10268000DBFCDDE90D020C9B0F994FF0000B91462E
:102690001093009211B9791C00EB0109B7EB090006
:1026A00003D4C0F1FF3B07F10109A9EB070001903A
:1026B00042E0012F00DA01270021112F01DD112056
:1026C00000E03846CDE9000104A90CA8FFF7B4FCEE
:1026D000DDE90D010C9A00914FF0000BB946109204
:1026E00021070FD4009A4A4503DA914601E0A9F187
:1026F0000109B9F1010F05DD109AA9F10101515C41
:102700003029F4D0B84202DA10F1040F03DA0121C3
:10271000CDE9011010E0002803DC8344A9EB00019F
:1027200002E0411C494500DD8946A0EB0B00401C3E
:1027300001904FF000400290200705D401984845D1
:1027400002DB4FF0FF30019000208DF84B00029823
:102750000DF14B07B0F1004F25D002200C902B203B
:102760000D90029800280CDA404202902D200D9026
:1027700007E00A210298FDF743FF3031029007F885
:10278000011D0C99481E0C900029F2DC02980028CB
:10279000EFD1791E0D980870307800F0200040F0DD
:1027A000450007F8020D11A8C01BC01D0290139828
:1027B000007800B1012000EB0901019801EBE07104
:1027C000029801440398401A401E0390E00306D487
:1027D00053462146179A039800F05CF80544139875
:1027E000007818B15246179990476D1CE00323D525
:1027F00053462146179A039800F04CF805441BE015
:10280000BBF1000F07DB0098584504DD10981799BD
:1028100010F80B0001E017993020524690470198BC
:102820000BF1010B401E05F10105019004D12E2092
:102830005246179990476D1CB9F10001A9F10109A1
:10284000DEDC05E017F8010B5246179990476D1C26
:102850000299481E02900029F4DC53462146179A3B
:1028600003989EE62D0000002B00000020000000D1
:102870002DE9F041044600251E461746880404D47D
:1028800005E039462020B0476D1C641EF9D5284666
:10289000BDE8F0812DE9F041044600251E46904632
:1028A000C80301D5302700E02027880404D505E0BF
:1028B00041463846B0476D1C641EF9D52846BDE830
:1028C000F0810A68531C0B6010707047FEF77EFAA7
:1028D000FEF70AF8FEF770F803E0FEF71BF8FEF7C4
:1028E00091F8FAE7F0B50B30154D20F00701002400
:1028F000144A0FE003688B420BD38B4205D95E1A52
:1029000043184768C3E9006700E04368136002C0EA
:1029100004E0021D10680028ECD12046002802D1F6
:10292000286808B10020F0BD064A07481060074A31
:10293000121A22F00702C0E9002401202860D7E71C
:10294000400000203C000020DC000020D8100020C7
:1029500000404040404040404040414141414140B2
:102960004040404040404040404040404040404067
:1029700040050202020202020202020202020202F6
:1029800002202020202020202020200202020202FB
:102990000202909090909090101010101010101053
:1029A000101010101010101010101010020202025F
:1029B00002028888888888880808080808080808A3
:1029C000080808080808080808080808020202029F
:1029D0004000000051290008F829000800000020EC
:1029E00044000000182000083C2A00084400002091
:1029F00094200000282000080A0000006400000065
:102A000000000000000000000000000000000000C6
:102A100000000000000000000000000000000000B6
:102A20000102030401020304060708090204060860
:0C2A30000000000000000000000000009A
:04000005080000ED02
:00000001FF
